{
	"contracts/ReleaseToken/ReleaseTokenByTime.sol": {
		"ReleaseToken": {
			"abi": [
				{
					"inputs": [
						{
							"internalType": "address",
							"name": "_beneficiaryAddress",
							"type": "address"
						},
						{
							"internalType": "uint256",
							"name": "_duration",
							"type": "uint256"
						},
						{
							"internalType": "address",
							"name": "_tokenAddress",
							"type": "address"
						},
						{
							"internalType": "uint256",
							"name": "_maxTokenAmount",
							"type": "uint256"
						}
					],
					"stateMutability": "nonpayable",
					"type": "constructor"
				},
				{
					"anonymous": false,
					"inputs": [
						{
							"indexed": true,
							"internalType": "uint256",
							"name": "tokenAmount",
							"type": "uint256"
						},
						{
							"indexed": false,
							"internalType": "address",
							"name": "ads",
							"type": "address"
						}
					],
					"name": "ERC20TokenRelease",
					"type": "event"
				},
				{
					"inputs": [
						{
							"internalType": "uint256",
							"name": "timestamp",
							"type": "uint256"
						}
					],
					"name": "calculateTokenAmount",
					"outputs": [
						{
							"internalType": "uint256",
							"name": "",
							"type": "uint256"
						}
					],
					"stateMutability": "view",
					"type": "function"
				},
				{
					"inputs": [],
					"name": "duration",
					"outputs": [
						{
							"internalType": "uint256",
							"name": "",
							"type": "uint256"
						}
					],
					"stateMutability": "view",
					"type": "function"
				},
				{
					"inputs": [
						{
							"internalType": "address",
							"name": "",
							"type": "address"
						}
					],
					"name": "erc20Released",
					"outputs": [
						{
							"internalType": "uint256",
							"name": "",
							"type": "uint256"
						}
					],
					"stateMutability": "view",
					"type": "function"
				},
				{
					"inputs": [],
					"name": "maxTokenAmount",
					"outputs": [
						{
							"internalType": "uint256",
							"name": "",
							"type": "uint256"
						}
					],
					"stateMutability": "view",
					"type": "function"
				},
				{
					"inputs": [],
					"name": "release",
					"outputs": [],
					"stateMutability": "nonpayable",
					"type": "function"
				},
				{
					"inputs": [],
					"name": "startTimestamp",
					"outputs": [
						{
							"internalType": "uint256",
							"name": "",
							"type": "uint256"
						}
					],
					"stateMutability": "view",
					"type": "function"
				},
				{
					"inputs": [],
					"name": "tokenAddress",
					"outputs": [
						{
							"internalType": "address",
							"name": "",
							"type": "address"
						}
					],
					"stateMutability": "view",
					"type": "function"
				}
			],
			"devdoc": {
				"kind": "dev",
				"methods": {},
				"version": 1
			},
			"evm": {
				"assembly": "    /* \"contracts/ReleaseToken/ReleaseTokenByTime.sol\":114:1877  contract ReleaseToken {... */\n  mstore(0x40, 0x80)\n    /* \"contracts/ReleaseToken/ReleaseTokenByTime.sol\":550:951  constructor(address _beneficiaryAddress, uint256 _duration, address _tokenAddress, uint256 _maxTokenAmount) {... */\n  callvalue\n  dup1\n  iszero\n  tag_1\n  jumpi\n  revert(0x00, 0x00)\ntag_1:\n  pop\n  mload(0x40)\n  sub(codesize, bytecodeSize)\n  dup1\n  bytecodeSize\n  dup4\n  codecopy\n  dup2\n  dup2\n  add\n  0x40\n  mstore\n  dup2\n  add\n  swap1\n  tag_2\n  swap2\n  swap1\n  tag_3\n  jump\t// in\ntag_2:\n    /* \"contracts/ReleaseToken/ReleaseTokenByTime.sol\":707:708  0 */\n  0x00\n    /* \"contracts/ReleaseToken/ReleaseTokenByTime.sol\":676:709  _beneficiaryAddress != address(0) */\n  0xffffffffffffffffffffffffffffffffffffffff\n  and\n    /* \"contracts/ReleaseToken/ReleaseTokenByTime.sol\":676:695  _beneficiaryAddress */\n  dup5\n    /* \"contracts/ReleaseToken/ReleaseTokenByTime.sol\":676:709  _beneficiaryAddress != address(0) */\n  0xffffffffffffffffffffffffffffffffffffffff\n  and\n  sub\n    /* \"contracts/ReleaseToken/ReleaseTokenByTime.sol\":668:742  require(_beneficiaryAddress != address(0), \"_beneficiaryAddress is null;\") */\n  tag_6\n  jumpi\n  mload(0x40)\n  0x08c379a000000000000000000000000000000000000000000000000000000000\n  dup2\n  mstore\n  0x04\n  add\n  tag_7\n  swap1\n  tag_8\n  jump\t// in\ntag_7:\n  mload(0x40)\n  dup1\n  swap2\n  sub\n  swap1\n  revert\ntag_6:\n    /* \"contracts/ReleaseToken/ReleaseTokenByTime.sol\":773:792  _beneficiaryAddress */\n  dup4\n    /* \"contracts/ReleaseToken/ReleaseTokenByTime.sol\":752:770  beneficiaryAddress */\n  0x01\n  0x00\n    /* \"contracts/ReleaseToken/ReleaseTokenByTime.sol\":752:792  beneficiaryAddress = _beneficiaryAddress */\n  0x0100\n  exp\n  dup2\n  sload\n  dup2\n  0xffffffffffffffffffffffffffffffffffffffff\n  mul\n  not\n  and\n  swap1\n  dup4\n  0xffffffffffffffffffffffffffffffffffffffff\n  and\n  mul\n  or\n  swap1\n  sstore\n  pop\n    /* \"contracts/ReleaseToken/ReleaseTokenByTime.sol\":819:834  block.timestamp */\n  timestamp\n    /* \"contracts/ReleaseToken/ReleaseTokenByTime.sol\":802:816  startTimestamp */\n  0x02\n    /* \"contracts/ReleaseToken/ReleaseTokenByTime.sol\":802:834  startTimestamp = block.timestamp */\n  dup2\n  swap1\n  sstore\n  pop\n    /* \"contracts/ReleaseToken/ReleaseTokenByTime.sol\":855:864  _duration */\n  dup3\n    /* \"contracts/ReleaseToken/ReleaseTokenByTime.sol\":844:852  duration */\n  0x03\n    /* \"contracts/ReleaseToken/ReleaseTokenByTime.sol\":844:864  duration = _duration */\n  dup2\n  swap1\n  sstore\n  pop\n    /* \"contracts/ReleaseToken/ReleaseTokenByTime.sol\":889:902  _tokenAddress */\n  dup2\n    /* \"contracts/ReleaseToken/ReleaseTokenByTime.sol\":874:886  tokenAddress */\n  0x04\n  0x00\n    /* \"contracts/ReleaseToken/ReleaseTokenByTime.sol\":874:902  tokenAddress = _tokenAddress */\n  0x0100\n  exp\n  dup2\n  sload\n  dup2\n  0xffffffffffffffffffffffffffffffffffffffff\n  mul\n  not\n  and\n  swap1\n  dup4\n  0xffffffffffffffffffffffffffffffffffffffff\n  and\n  mul\n  or\n  swap1\n  sstore\n  pop\n    /* \"contracts/ReleaseToken/ReleaseTokenByTime.sol\":929:944  _maxTokenAmount */\n  dup1\n    /* \"contracts/ReleaseToken/ReleaseTokenByTime.sol\":912:926  maxTokenAmount */\n  0x05\n    /* \"contracts/ReleaseToken/ReleaseTokenByTime.sol\":912:944  maxTokenAmount = _maxTokenAmount */\n  dup2\n  swap1\n  sstore\n  pop\n    /* \"contracts/ReleaseToken/ReleaseTokenByTime.sol\":550:951  constructor(address _beneficiaryAddress, uint256 _duration, address _tokenAddress, uint256 _maxTokenAmount) {... */\n  pop\n  pop\n  pop\n  pop\n    /* \"contracts/ReleaseToken/ReleaseTokenByTime.sol\":114:1877  contract ReleaseToken {... */\n  jump(tag_9)\n    /* \"#utility.yul\":88:205   */\ntag_11:\n    /* \"#utility.yul\":197:198   */\n  0x00\n    /* \"#utility.yul\":194:195   */\n  0x00\n    /* \"#utility.yul\":187:199   */\n  revert\n    /* \"#utility.yul\":334:460   */\ntag_13:\n    /* \"#utility.yul\":371:378   */\n  0x00\n    /* \"#utility.yul\":411:453   */\n  0xffffffffffffffffffffffffffffffffffffffff\n    /* \"#utility.yul\":404:409   */\n  dup3\n    /* \"#utility.yul\":400:454   */\n  and\n    /* \"#utility.yul\":389:454   */\n  swap1\n  pop\n    /* \"#utility.yul\":334:460   */\n  swap2\n  swap1\n  pop\n  jump\t// out\n    /* \"#utility.yul\":466:562   */\ntag_14:\n    /* \"#utility.yul\":503:510   */\n  0x00\n    /* \"#utility.yul\":532:556   */\n  tag_29\n    /* \"#utility.yul\":550:555   */\n  dup3\n    /* \"#utility.yul\":532:556   */\n  tag_13\n  jump\t// in\ntag_29:\n    /* \"#utility.yul\":521:556   */\n  swap1\n  pop\n    /* \"#utility.yul\":466:562   */\n  swap2\n  swap1\n  pop\n  jump\t// out\n    /* \"#utility.yul\":568:690   */\ntag_15:\n    /* \"#utility.yul\":641:665   */\n  tag_31\n    /* \"#utility.yul\":659:664   */\n  dup2\n    /* \"#utility.yul\":641:665   */\n  tag_14\n  jump\t// in\ntag_31:\n    /* \"#utility.yul\":634:639   */\n  dup2\n    /* \"#utility.yul\":631:666   */\n  eq\n    /* \"#utility.yul\":621:684   */\n  tag_32\n  jumpi\n    /* \"#utility.yul\":680:681   */\n  0x00\n    /* \"#utility.yul\":677:678   */\n  0x00\n    /* \"#utility.yul\":670:682   */\n  revert\n    /* \"#utility.yul\":621:684   */\ntag_32:\n    /* \"#utility.yul\":568:690   */\n  pop\n  jump\t// out\n    /* \"#utility.yul\":696:839   */\ntag_16:\n    /* \"#utility.yul\":753:758   */\n  0x00\n    /* \"#utility.yul\":784:790   */\n  dup2\n    /* \"#utility.yul\":778:791   */\n  mload\n    /* \"#utility.yul\":769:791   */\n  swap1\n  pop\n    /* \"#utility.yul\":800:833   */\n  tag_34\n    /* \"#utility.yul\":827:832   */\n  dup2\n    /* \"#utility.yul\":800:833   */\n  tag_15\n  jump\t// in\ntag_34:\n    /* \"#utility.yul\":696:839   */\n  swap3\n  swap2\n  pop\n  pop\n  jump\t// out\n    /* \"#utility.yul\":845:922   */\ntag_17:\n    /* \"#utility.yul\":882:889   */\n  0x00\n    /* \"#utility.yul\":911:916   */\n  dup2\n    /* \"#utility.yul\":900:916   */\n  swap1\n  pop\n    /* \"#utility.yul\":845:922   */\n  swap2\n  swap1\n  pop\n  jump\t// out\n    /* \"#utility.yul\":928:1050   */\ntag_18:\n    /* \"#utility.yul\":1001:1025   */\n  tag_37\n    /* \"#utility.yul\":1019:1024   */\n  dup2\n    /* \"#utility.yul\":1001:1025   */\n  tag_17\n  jump\t// in\ntag_37:\n    /* \"#utility.yul\":994:999   */\n  dup2\n    /* \"#utility.yul\":991:1026   */\n  eq\n    /* \"#utility.yul\":981:1044   */\n  tag_38\n  jumpi\n    /* \"#utility.yul\":1040:1041   */\n  0x00\n    /* \"#utility.yul\":1037:1038   */\n  0x00\n    /* \"#utility.yul\":1030:1042   */\n  revert\n    /* \"#utility.yul\":981:1044   */\ntag_38:\n    /* \"#utility.yul\":928:1050   */\n  pop\n  jump\t// out\n    /* \"#utility.yul\":1056:1199   */\ntag_19:\n    /* \"#utility.yul\":1113:1118   */\n  0x00\n    /* \"#utility.yul\":1144:1150   */\n  dup2\n    /* \"#utility.yul\":1138:1151   */\n  mload\n    /* \"#utility.yul\":1129:1151   */\n  swap1\n  pop\n    /* \"#utility.yul\":1160:1193   */\n  tag_40\n    /* \"#utility.yul\":1187:1192   */\n  dup2\n    /* \"#utility.yul\":1160:1193   */\n  tag_18\n  jump\t// in\ntag_40:\n    /* \"#utility.yul\":1056:1199   */\n  swap3\n  swap2\n  pop\n  pop\n  jump\t// out\n    /* \"#utility.yul\":1205:2025   */\ntag_3:\n    /* \"#utility.yul\":1302:1308   */\n  0x00\n    /* \"#utility.yul\":1310:1316   */\n  0x00\n    /* \"#utility.yul\":1318:1324   */\n  0x00\n    /* \"#utility.yul\":1326:1332   */\n  0x00\n    /* \"#utility.yul\":1375:1378   */\n  0x80\n    /* \"#utility.yul\":1363:1372   */\n  dup6\n    /* \"#utility.yul\":1354:1361   */\n  dup8\n    /* \"#utility.yul\":1350:1373   */\n  sub\n    /* \"#utility.yul\":1346:1379   */\n  slt\n    /* \"#utility.yul\":1343:1463   */\n  iszero\n  tag_42\n  jumpi\n    /* \"#utility.yul\":1382:1461   */\n  tag_43\n  tag_11\n  jump\t// in\ntag_43:\n    /* \"#utility.yul\":1343:1463   */\ntag_42:\n    /* \"#utility.yul\":1502:1503   */\n  0x00\n    /* \"#utility.yul\":1527:1591   */\n  tag_44\n    /* \"#utility.yul\":1583:1590   */\n  dup8\n    /* \"#utility.yul\":1574:1580   */\n  dup3\n    /* \"#utility.yul\":1563:1572   */\n  dup9\n    /* \"#utility.yul\":1559:1581   */\n  add\n    /* \"#utility.yul\":1527:1591   */\n  tag_16\n  jump\t// in\ntag_44:\n    /* \"#utility.yul\":1517:1591   */\n  swap5\n  pop\n    /* \"#utility.yul\":1473:1601   */\n  pop\n    /* \"#utility.yul\":1640:1642   */\n  0x20\n    /* \"#utility.yul\":1666:1730   */\n  tag_45\n    /* \"#utility.yul\":1722:1729   */\n  dup8\n    /* \"#utility.yul\":1713:1719   */\n  dup3\n    /* \"#utility.yul\":1702:1711   */\n  dup9\n    /* \"#utility.yul\":1698:1720   */\n  add\n    /* \"#utility.yul\":1666:1730   */\n  tag_19\n  jump\t// in\ntag_45:\n    /* \"#utility.yul\":1656:1730   */\n  swap4\n  pop\n    /* \"#utility.yul\":1611:1740   */\n  pop\n    /* \"#utility.yul\":1779:1781   */\n  0x40\n    /* \"#utility.yul\":1805:1869   */\n  tag_46\n    /* \"#utility.yul\":1861:1868   */\n  dup8\n    /* \"#utility.yul\":1852:1858   */\n  dup3\n    /* \"#utility.yul\":1841:1850   */\n  dup9\n    /* \"#utility.yul\":1837:1859   */\n  add\n    /* \"#utility.yul\":1805:1869   */\n  tag_16\n  jump\t// in\ntag_46:\n    /* \"#utility.yul\":1795:1869   */\n  swap3\n  pop\n    /* \"#utility.yul\":1750:1879   */\n  pop\n    /* \"#utility.yul\":1918:1920   */\n  0x60\n    /* \"#utility.yul\":1944:2008   */\n  tag_47\n    /* \"#utility.yul\":2000:2007   */\n  dup8\n    /* \"#utility.yul\":1991:1997   */\n  dup3\n    /* \"#utility.yul\":1980:1989   */\n  dup9\n    /* \"#utility.yul\":1976:1998   */\n  add\n    /* \"#utility.yul\":1944:2008   */\n  tag_19\n  jump\t// in\ntag_47:\n    /* \"#utility.yul\":1934:2008   */\n  swap2\n  pop\n    /* \"#utility.yul\":1889:2018   */\n  pop\n    /* \"#utility.yul\":1205:2025   */\n  swap3\n  swap6\n  swap2\n  swap5\n  pop\n  swap3\n  pop\n  jump\t// out\n    /* \"#utility.yul\":2031:2200   */\ntag_20:\n    /* \"#utility.yul\":2115:2126   */\n  0x00\n    /* \"#utility.yul\":2149:2155   */\n  dup3\n    /* \"#utility.yul\":2144:2147   */\n  dup3\n    /* \"#utility.yul\":2137:2156   */\n  mstore\n    /* \"#utility.yul\":2189:2193   */\n  0x20\n    /* \"#utility.yul\":2184:2187   */\n  dup3\n    /* \"#utility.yul\":2180:2194   */\n  add\n    /* \"#utility.yul\":2165:2194   */\n  swap1\n  pop\n    /* \"#utility.yul\":2031:2200   */\n  swap3\n  swap2\n  pop\n  pop\n  jump\t// out\n    /* \"#utility.yul\":2206:2384   */\ntag_21:\n    /* \"#utility.yul\":2346:2376   */\n  0x5f62656e656669636961727941646472657373206973206e756c6c3b00000000\n    /* \"#utility.yul\":2342:2343   */\n  0x00\n    /* \"#utility.yul\":2334:2340   */\n  dup3\n    /* \"#utility.yul\":2330:2344   */\n  add\n    /* \"#utility.yul\":2323:2377   */\n  mstore\n    /* \"#utility.yul\":2206:2384   */\n  pop\n  jump\t// out\n    /* \"#utility.yul\":2390:2756   */\ntag_22:\n    /* \"#utility.yul\":2532:2535   */\n  0x00\n    /* \"#utility.yul\":2553:2620   */\n  tag_51\n    /* \"#utility.yul\":2617:2619   */\n  0x1c\n    /* \"#utility.yul\":2612:2615   */\n  dup4\n    /* \"#utility.yul\":2553:2620   */\n  tag_20\n  jump\t// in\ntag_51:\n    /* \"#utility.yul\":2546:2620   */\n  swap2\n  pop\n    /* \"#utility.yul\":2629:2722   */\n  tag_52\n    /* \"#utility.yul\":2718:2721   */\n  dup3\n    /* \"#utility.yul\":2629:2722   */\n  tag_21\n  jump\t// in\ntag_52:\n    /* \"#utility.yul\":2747:2749   */\n  0x20\n    /* \"#utility.yul\":2742:2745   */\n  dup3\n    /* \"#utility.yul\":2738:2750   */\n  add\n    /* \"#utility.yul\":2731:2750   */\n  swap1\n  pop\n    /* \"#utility.yul\":2390:2756   */\n  swap2\n  swap1\n  pop\n  jump\t// out\n    /* \"#utility.yul\":2762:3181   */\ntag_8:\n    /* \"#utility.yul\":2928:2932   */\n  0x00\n    /* \"#utility.yul\":2966:2968   */\n  0x20\n    /* \"#utility.yul\":2955:2964   */\n  dup3\n    /* \"#utility.yul\":2951:2969   */\n  add\n    /* \"#utility.yul\":2943:2969   */\n  swap1\n  pop\n    /* \"#utility.yul\":3015:3024   */\n  dup2\n    /* \"#utility.yul\":3009:3013   */\n  dup2\n    /* \"#utility.yul\":3005:3025   */\n  sub\n    /* \"#utility.yul\":3001:3002   */\n  0x00\n    /* \"#utility.yul\":2990:2999   */\n  dup4\n    /* \"#utility.yul\":2986:3003   */\n  add\n    /* \"#utility.yul\":2979:3026   */\n  mstore\n    /* \"#utility.yul\":3043:3174   */\n  tag_54\n    /* \"#utility.yul\":3169:3173   */\n  dup2\n    /* \"#utility.yul\":3043:3174   */\n  tag_22\n  jump\t// in\ntag_54:\n    /* \"#utility.yul\":3035:3174   */\n  swap1\n  pop\n    /* \"#utility.yul\":2762:3181   */\n  swap2\n  swap1\n  pop\n  jump\t// out\n    /* \"contracts/ReleaseToken/ReleaseTokenByTime.sol\":114:1877  contract ReleaseToken {... */\ntag_9:\n  dataSize(sub_0)\n  dup1\n  dataOffset(sub_0)\n  0x00\n  codecopy\n  0x00\n  return\nstop\n\nsub_0: assembly {\n        /* \"contracts/ReleaseToken/ReleaseTokenByTime.sol\":114:1877  contract ReleaseToken {... */\n      mstore(0x40, 0x80)\n      callvalue\n      dup1\n      iszero\n      tag_1\n      jumpi\n      revert(0x00, 0x00)\n    tag_1:\n      pop\n      jumpi(tag_2, lt(calldatasize, 0x04))\n      shr(0xe0, calldataload(0x00))\n      dup1\n      0x9d76ea58\n      gt\n      tag_10\n      jumpi\n      dup1\n      0x9d76ea58\n      eq\n      tag_6\n      jumpi\n      dup1\n      0xa24bcf46\n      eq\n      tag_7\n      jumpi\n      dup1\n      0xbbc702c6\n      eq\n      tag_8\n      jumpi\n      dup1\n      0xe6fd48bc\n      eq\n      tag_9\n      jumpi\n      jump(tag_2)\n    tag_10:\n      dup1\n      0x0fb5a6b4\n      eq\n      tag_3\n      jumpi\n      dup1\n      0x86d1a69f\n      eq\n      tag_4\n      jumpi\n      dup1\n      0x8a926d0f\n      eq\n      tag_5\n      jumpi\n    tag_2:\n      revert(0x00, 0x00)\n        /* \"contracts/ReleaseToken/ReleaseTokenByTime.sol\":334:357  uint256 public duration */\n    tag_3:\n      tag_11\n      tag_12\n      jump\t// in\n    tag_11:\n      mload(0x40)\n      tag_13\n      swap2\n      swap1\n      tag_14\n      jump\t// in\n    tag_13:\n      mload(0x40)\n      dup1\n      swap2\n      sub\n      swap1\n      return\n        /* \"contracts/ReleaseToken/ReleaseTokenByTime.sol\":1393:1875  function release() public {... */\n    tag_4:\n      tag_15\n      tag_16\n      jump\t// in\n    tag_15:\n      stop\n        /* \"contracts/ReleaseToken/ReleaseTokenByTime.sol\":443:472  uint256 public maxTokenAmount */\n    tag_5:\n      tag_17\n      tag_18\n      jump\t// in\n    tag_17:\n      mload(0x40)\n      tag_19\n      swap2\n      swap1\n      tag_14\n      jump\t// in\n    tag_19:\n      mload(0x40)\n      dup1\n      swap2\n      sub\n      swap1\n      return\n        /* \"contracts/ReleaseToken/ReleaseTokenByTime.sol\":394:421  address public tokenAddress */\n    tag_6:\n      tag_20\n      tag_21\n      jump\t// in\n    tag_20:\n      mload(0x40)\n      tag_22\n      swap2\n      swap1\n      tag_23\n      jump\t// in\n    tag_22:\n      mload(0x40)\n      dup1\n      swap2\n      sub\n      swap1\n      return\n        /* \"contracts/ReleaseToken/ReleaseTokenByTime.sol\":1007:1358  function calculateTokenAmount(uint256 timestamp) public view returns(uint256) {... */\n    tag_7:\n      tag_24\n      0x04\n      dup1\n      calldatasize\n      sub\n      dup2\n      add\n      swap1\n      tag_25\n      swap2\n      swap1\n      tag_26\n      jump\t// in\n    tag_25:\n      tag_27\n      jump\t// in\n    tag_24:\n      mload(0x40)\n      tag_28\n      swap2\n      swap1\n      tag_14\n      jump\t// in\n    tag_28:\n      mload(0x40)\n      dup1\n      swap2\n      sub\n      swap1\n      return\n        /* \"contracts/ReleaseToken/ReleaseTokenByTime.sol\":142:191  mapping (address => uint256) public erc20Released */\n    tag_8:\n      tag_29\n      0x04\n      dup1\n      calldatasize\n      sub\n      dup2\n      add\n      swap1\n      tag_30\n      swap2\n      swap1\n      tag_31\n      jump\t// in\n    tag_30:\n      tag_32\n      jump\t// in\n    tag_29:\n      mload(0x40)\n      tag_33\n      swap2\n      swap1\n      tag_14\n      jump\t// in\n    tag_33:\n      mload(0x40)\n      dup1\n      swap2\n      sub\n      swap1\n      return\n        /* \"contracts/ReleaseToken/ReleaseTokenByTime.sol\":280:309  uint256 public startTimestamp */\n    tag_9:\n      tag_34\n      tag_35\n      jump\t// in\n    tag_34:\n      mload(0x40)\n      tag_36\n      swap2\n      swap1\n      tag_14\n      jump\t// in\n    tag_36:\n      mload(0x40)\n      dup1\n      swap2\n      sub\n      swap1\n      return\n        /* \"contracts/ReleaseToken/ReleaseTokenByTime.sol\":334:357  uint256 public duration */\n    tag_12:\n      sload(0x03)\n      dup2\n      jump\t// out\n        /* \"contracts/ReleaseToken/ReleaseTokenByTime.sol\":1393:1875  function release() public {... */\n    tag_16:\n        /* \"contracts/ReleaseToken/ReleaseTokenByTime.sol\":1451:1469  beneficiaryAddress */\n      0x01\n      0x00\n      swap1\n      sload\n      swap1\n      0x0100\n      exp\n      swap1\n      div\n      0xffffffffffffffffffffffffffffffffffffffff\n      and\n        /* \"contracts/ReleaseToken/ReleaseTokenByTime.sol\":1437:1469  msg.sender == beneficiaryAddress */\n      0xffffffffffffffffffffffffffffffffffffffff\n      and\n        /* \"contracts/ReleaseToken/ReleaseTokenByTime.sol\":1437:1447  msg.sender */\n      caller\n        /* \"contracts/ReleaseToken/ReleaseTokenByTime.sol\":1437:1469  msg.sender == beneficiaryAddress */\n      0xffffffffffffffffffffffffffffffffffffffff\n      and\n      eq\n        /* \"contracts/ReleaseToken/ReleaseTokenByTime.sol\":1429:1500  require(msg.sender == beneficiaryAddress, \"not the beneficiaryAddress\") */\n      tag_38\n      jumpi\n      mload(0x40)\n      0x08c379a000000000000000000000000000000000000000000000000000000000\n      dup2\n      mstore\n      0x04\n      add\n      tag_39\n      swap1\n      tag_40\n      jump\t// in\n    tag_39:\n      mload(0x40)\n      dup1\n      swap2\n      sub\n      swap1\n      revert\n    tag_38:\n        /* \"contracts/ReleaseToken/ReleaseTokenByTime.sol\":1510:1529  uint256 tokenAmount */\n      0x00\n        /* \"contracts/ReleaseToken/ReleaseTokenByTime.sol\":1572:1585  erc20Released */\n      0x00\n        /* \"contracts/ReleaseToken/ReleaseTokenByTime.sol\":1572:1599  erc20Released[tokenAddress] */\n      0x00\n        /* \"contracts/ReleaseToken/ReleaseTokenByTime.sol\":1586:1598  tokenAddress */\n      0x04\n      0x00\n      swap1\n      sload\n      swap1\n      0x0100\n      exp\n      swap1\n      div\n      0xffffffffffffffffffffffffffffffffffffffff\n      and\n        /* \"contracts/ReleaseToken/ReleaseTokenByTime.sol\":1572:1599  erc20Released[tokenAddress] */\n      0xffffffffffffffffffffffffffffffffffffffff\n      and\n      0xffffffffffffffffffffffffffffffffffffffff\n      and\n      dup2\n      mstore\n      0x20\n      add\n      swap1\n      dup2\n      mstore\n      0x20\n      add\n      0x00\n      keccak256\n      sload\n        /* \"contracts/ReleaseToken/ReleaseTokenByTime.sol\":1532:1569  calculateTokenAmount(block.timestamp) */\n      tag_41\n        /* \"contracts/ReleaseToken/ReleaseTokenByTime.sol\":1553:1568  block.timestamp */\n      timestamp\n        /* \"contracts/ReleaseToken/ReleaseTokenByTime.sol\":1532:1552  calculateTokenAmount */\n      tag_27\n        /* \"contracts/ReleaseToken/ReleaseTokenByTime.sol\":1532:1569  calculateTokenAmount(block.timestamp) */\n      jump\t// in\n    tag_41:\n        /* \"contracts/ReleaseToken/ReleaseTokenByTime.sol\":1532:1599  calculateTokenAmount(block.timestamp) - erc20Released[tokenAddress] */\n      tag_42\n      swap2\n      swap1\n      tag_43\n      jump\t// in\n    tag_42:\n        /* \"contracts/ReleaseToken/ReleaseTokenByTime.sol\":1510:1599  uint256 tokenAmount = calculateTokenAmount(block.timestamp) - erc20Released[tokenAddress] */\n      swap1\n      pop\n        /* \"contracts/ReleaseToken/ReleaseTokenByTime.sol\":1631:1632  0 */\n      0x00\n        /* \"contracts/ReleaseToken/ReleaseTokenByTime.sol\":1617:1628  tokenAmount */\n      dup2\n        /* \"contracts/ReleaseToken/ReleaseTokenByTime.sol\":1617:1632  tokenAmount > 0 */\n      gt\n        /* \"contracts/ReleaseToken/ReleaseTokenByTime.sol\":1609:1661  require(tokenAmount > 0, \"get the max amount token\") */\n      tag_44\n      jumpi\n      mload(0x40)\n      0x08c379a000000000000000000000000000000000000000000000000000000000\n      dup2\n      mstore\n      0x04\n      add\n      tag_45\n      swap1\n      tag_46\n      jump\t// in\n    tag_45:\n      mload(0x40)\n      dup1\n      swap2\n      sub\n      swap1\n      revert\n    tag_44:\n        /* \"contracts/ReleaseToken/ReleaseTokenByTime.sol\":1694:1705  tokenAmount */\n      dup1\n        /* \"contracts/ReleaseToken/ReleaseTokenByTime.sol\":1676:1726  ERC20TokenRelease(tokenAmount, beneficiaryAddress) */\n      0x3d7159e755d949e0b07a019fbf8d2daff8082abe5935db36d722e59753a2ff46\n        /* \"contracts/ReleaseToken/ReleaseTokenByTime.sol\":1707:1725  beneficiaryAddress */\n      0x01\n      0x00\n      swap1\n      sload\n      swap1\n      0x0100\n      exp\n      swap1\n      div\n      0xffffffffffffffffffffffffffffffffffffffff\n      and\n        /* \"contracts/ReleaseToken/ReleaseTokenByTime.sol\":1676:1726  ERC20TokenRelease(tokenAmount, beneficiaryAddress) */\n      mload(0x40)\n      tag_47\n      swap2\n      swap1\n      tag_23\n      jump\t// in\n    tag_47:\n      mload(0x40)\n      dup1\n      swap2\n      sub\n      swap1\n      log2\n        /* \"contracts/ReleaseToken/ReleaseTokenByTime.sol\":1767:1778  tokenAmount */\n      dup1\n        /* \"contracts/ReleaseToken/ReleaseTokenByTime.sol\":1736:1749  erc20Released */\n      0x00\n        /* \"contracts/ReleaseToken/ReleaseTokenByTime.sol\":1736:1763  erc20Released[tokenAddress] */\n      0x00\n        /* \"contracts/ReleaseToken/ReleaseTokenByTime.sol\":1750:1762  tokenAddress */\n      0x04\n      0x00\n      swap1\n      sload\n      swap1\n      0x0100\n      exp\n      swap1\n      div\n      0xffffffffffffffffffffffffffffffffffffffff\n      and\n        /* \"contracts/ReleaseToken/ReleaseTokenByTime.sol\":1736:1763  erc20Released[tokenAddress] */\n      0xffffffffffffffffffffffffffffffffffffffff\n      and\n      0xffffffffffffffffffffffffffffffffffffffff\n      and\n      dup2\n      mstore\n      0x20\n      add\n      swap1\n      dup2\n      mstore\n      0x20\n      add\n      0x00\n      keccak256\n      0x00\n        /* \"contracts/ReleaseToken/ReleaseTokenByTime.sol\":1736:1778  erc20Released[tokenAddress] += tokenAmount */\n      dup3\n      dup3\n      sload\n      tag_48\n      swap2\n      swap1\n      tag_49\n      jump\t// in\n    tag_48:\n      swap3\n      pop\n      pop\n      dup2\n      swap1\n      sstore\n      pop\n        /* \"contracts/ReleaseToken/ReleaseTokenByTime.sol\":1813:1825  tokenAddress */\n      0x04\n      0x00\n      swap1\n      sload\n      swap1\n      0x0100\n      exp\n      swap1\n      div\n      0xffffffffffffffffffffffffffffffffffffffff\n      and\n        /* \"contracts/ReleaseToken/ReleaseTokenByTime.sol\":1806:1835  IERC20(tokenAddress).transfer */\n      0xffffffffffffffffffffffffffffffffffffffff\n      and\n      0xa9059cbb\n        /* \"contracts/ReleaseToken/ReleaseTokenByTime.sol\":1836:1854  beneficiaryAddress */\n      0x01\n      0x00\n      swap1\n      sload\n      swap1\n      0x0100\n      exp\n      swap1\n      div\n      0xffffffffffffffffffffffffffffffffffffffff\n      and\n        /* \"contracts/ReleaseToken/ReleaseTokenByTime.sol\":1856:1867  tokenAmount */\n      dup4\n        /* \"contracts/ReleaseToken/ReleaseTokenByTime.sol\":1806:1868  IERC20(tokenAddress).transfer(beneficiaryAddress, tokenAmount) */\n      mload(0x40)\n      dup4\n      0xffffffff\n      and\n      0xe0\n      shl\n      dup2\n      mstore\n      0x04\n      add\n      tag_50\n      swap3\n      swap2\n      swap1\n      tag_51\n      jump\t// in\n    tag_50:\n      0x20\n      mload(0x40)\n      dup1\n      dup4\n      sub\n      dup2\n      0x00\n      dup8\n      gas\n      call\n      iszero\n      dup1\n      iszero\n      tag_53\n      jumpi\n      returndatacopy(0x00, 0x00, returndatasize)\n      revert(0x00, returndatasize)\n    tag_53:\n      pop\n      pop\n      pop\n      pop\n      mload(0x40)\n      returndatasize\n      not(0x1f)\n      0x1f\n      dup3\n      add\n      and\n      dup3\n      add\n      dup1\n      0x40\n      mstore\n      pop\n      dup2\n      add\n      swap1\n      tag_54\n      swap2\n      swap1\n      tag_55\n      jump\t// in\n    tag_54:\n      pop\n        /* \"contracts/ReleaseToken/ReleaseTokenByTime.sol\":1419:1875  {... */\n      pop\n        /* \"contracts/ReleaseToken/ReleaseTokenByTime.sol\":1393:1875  function release() public {... */\n      jump\t// out\n        /* \"contracts/ReleaseToken/ReleaseTokenByTime.sol\":443:472  uint256 public maxTokenAmount */\n    tag_18:\n      sload(0x05)\n      dup2\n      jump\t// out\n        /* \"contracts/ReleaseToken/ReleaseTokenByTime.sol\":394:421  address public tokenAddress */\n    tag_21:\n      0x04\n      0x00\n      swap1\n      sload\n      swap1\n      0x0100\n      exp\n      swap1\n      div\n      0xffffffffffffffffffffffffffffffffffffffff\n      and\n      dup2\n      jump\t// out\n        /* \"contracts/ReleaseToken/ReleaseTokenByTime.sol\":1007:1358  function calculateTokenAmount(uint256 timestamp) public view returns(uint256) {... */\n    tag_27:\n        /* \"contracts/ReleaseToken/ReleaseTokenByTime.sol\":1076:1083  uint256 */\n      0x00\n        /* \"contracts/ReleaseToken/ReleaseTokenByTime.sol\":1111:1125  startTimestamp */\n      sload(0x02)\n        /* \"contracts/ReleaseToken/ReleaseTokenByTime.sol\":1099:1108  timestamp */\n      dup3\n        /* \"contracts/ReleaseToken/ReleaseTokenByTime.sol\":1099:1125  timestamp < startTimestamp */\n      lt\n        /* \"contracts/ReleaseToken/ReleaseTokenByTime.sol\":1095:1352  if (timestamp < startTimestamp) {... */\n      iszero\n      tag_57\n      jumpi\n        /* \"contracts/ReleaseToken/ReleaseTokenByTime.sol\":1148:1149  0 */\n      0x00\n        /* \"contracts/ReleaseToken/ReleaseTokenByTime.sol\":1141:1149  return 0 */\n      swap1\n      pop\n      jump(tag_56)\n        /* \"contracts/ReleaseToken/ReleaseTokenByTime.sol\":1095:1352  if (timestamp < startTimestamp) {... */\n    tag_57:\n        /* \"contracts/ReleaseToken/ReleaseTokenByTime.sol\":1200:1208  duration */\n      sload(0x03)\n        /* \"contracts/ReleaseToken/ReleaseTokenByTime.sol\":1183:1197  startTimestamp */\n      sload(0x02)\n        /* \"contracts/ReleaseToken/ReleaseTokenByTime.sol\":1183:1208  startTimestamp + duration */\n      tag_59\n      swap2\n      swap1\n      tag_49\n      jump\t// in\n    tag_59:\n        /* \"contracts/ReleaseToken/ReleaseTokenByTime.sol\":1170:1179  timestamp */\n      dup3\n        /* \"contracts/ReleaseToken/ReleaseTokenByTime.sol\":1170:1208  timestamp >= startTimestamp + duration */\n      lt\n        /* \"contracts/ReleaseToken/ReleaseTokenByTime.sol\":1166:1352  if (timestamp >= startTimestamp + duration) {... */\n      tag_60\n      jumpi\n        /* \"contracts/ReleaseToken/ReleaseTokenByTime.sol\":1231:1245  maxTokenAmount */\n      sload(0x05)\n        /* \"contracts/ReleaseToken/ReleaseTokenByTime.sol\":1224:1245  return maxTokenAmount */\n      swap1\n      pop\n      jump(tag_56)\n        /* \"contracts/ReleaseToken/ReleaseTokenByTime.sol\":1166:1352  if (timestamp >= startTimestamp + duration) {... */\n    tag_60:\n        /* \"contracts/ReleaseToken/ReleaseTokenByTime.sol\":1333:1341  duration */\n      sload(0x03)\n        /* \"contracts/ReleaseToken/ReleaseTokenByTime.sol\":1314:1328  startTimestamp */\n      sload(0x02)\n        /* \"contracts/ReleaseToken/ReleaseTokenByTime.sol\":1302:1311  timestamp */\n      dup4\n        /* \"contracts/ReleaseToken/ReleaseTokenByTime.sol\":1302:1328  timestamp - startTimestamp */\n      tag_62\n      swap2\n      swap1\n      tag_43\n      jump\t// in\n    tag_62:\n        /* \"contracts/ReleaseToken/ReleaseTokenByTime.sol\":1284:1298  maxTokenAmount */\n      sload(0x05)\n        /* \"contracts/ReleaseToken/ReleaseTokenByTime.sol\":1284:1329  maxTokenAmount * (timestamp - startTimestamp) */\n      tag_63\n      swap2\n      swap1\n      tag_64\n      jump\t// in\n    tag_63:\n        /* \"contracts/ReleaseToken/ReleaseTokenByTime.sol\":1283:1341  (maxTokenAmount * (timestamp - startTimestamp)) / duration */\n      tag_65\n      swap2\n      swap1\n      tag_66\n      jump\t// in\n    tag_65:\n        /* \"contracts/ReleaseToken/ReleaseTokenByTime.sol\":1276:1341  return (maxTokenAmount * (timestamp - startTimestamp)) / duration */\n      swap1\n      pop\n        /* \"contracts/ReleaseToken/ReleaseTokenByTime.sol\":1007:1358  function calculateTokenAmount(uint256 timestamp) public view returns(uint256) {... */\n    tag_56:\n      swap2\n      swap1\n      pop\n      jump\t// out\n        /* \"contracts/ReleaseToken/ReleaseTokenByTime.sol\":142:191  mapping (address => uint256) public erc20Released */\n    tag_32:\n      mstore(0x20, 0x00)\n      dup1\n      0x00\n      mstore\n      keccak256(0x00, 0x40)\n      0x00\n      swap2\n      pop\n      swap1\n      pop\n      sload\n      dup2\n      jump\t// out\n        /* \"contracts/ReleaseToken/ReleaseTokenByTime.sol\":280:309  uint256 public startTimestamp */\n    tag_35:\n      sload(0x02)\n      dup2\n      jump\t// out\n        /* \"#utility.yul\":7:84   */\n    tag_67:\n        /* \"#utility.yul\":44:51   */\n      0x00\n        /* \"#utility.yul\":73:78   */\n      dup2\n        /* \"#utility.yul\":62:78   */\n      swap1\n      pop\n        /* \"#utility.yul\":7:84   */\n      swap2\n      swap1\n      pop\n      jump\t// out\n        /* \"#utility.yul\":90:208   */\n    tag_68:\n        /* \"#utility.yul\":177:201   */\n      tag_92\n        /* \"#utility.yul\":195:200   */\n      dup2\n        /* \"#utility.yul\":177:201   */\n      tag_67\n      jump\t// in\n    tag_92:\n        /* \"#utility.yul\":172:175   */\n      dup3\n        /* \"#utility.yul\":165:202   */\n      mstore\n        /* \"#utility.yul\":90:208   */\n      pop\n      pop\n      jump\t// out\n        /* \"#utility.yul\":214:436   */\n    tag_14:\n        /* \"#utility.yul\":307:311   */\n      0x00\n        /* \"#utility.yul\":345:347   */\n      0x20\n        /* \"#utility.yul\":334:343   */\n      dup3\n        /* \"#utility.yul\":330:348   */\n      add\n        /* \"#utility.yul\":322:348   */\n      swap1\n      pop\n        /* \"#utility.yul\":358:429   */\n      tag_94\n        /* \"#utility.yul\":426:427   */\n      0x00\n        /* \"#utility.yul\":415:424   */\n      dup4\n        /* \"#utility.yul\":411:428   */\n      add\n        /* \"#utility.yul\":402:408   */\n      dup5\n        /* \"#utility.yul\":358:429   */\n      tag_68\n      jump\t// in\n    tag_94:\n        /* \"#utility.yul\":214:436   */\n      swap3\n      swap2\n      pop\n      pop\n      jump\t// out\n        /* \"#utility.yul\":442:568   */\n    tag_69:\n        /* \"#utility.yul\":479:486   */\n      0x00\n        /* \"#utility.yul\":519:561   */\n      0xffffffffffffffffffffffffffffffffffffffff\n        /* \"#utility.yul\":512:517   */\n      dup3\n        /* \"#utility.yul\":508:562   */\n      and\n        /* \"#utility.yul\":497:562   */\n      swap1\n      pop\n        /* \"#utility.yul\":442:568   */\n      swap2\n      swap1\n      pop\n      jump\t// out\n        /* \"#utility.yul\":574:670   */\n    tag_70:\n        /* \"#utility.yul\":611:618   */\n      0x00\n        /* \"#utility.yul\":640:664   */\n      tag_97\n        /* \"#utility.yul\":658:663   */\n      dup3\n        /* \"#utility.yul\":640:664   */\n      tag_69\n      jump\t// in\n    tag_97:\n        /* \"#utility.yul\":629:664   */\n      swap1\n      pop\n        /* \"#utility.yul\":574:670   */\n      swap2\n      swap1\n      pop\n      jump\t// out\n        /* \"#utility.yul\":676:794   */\n    tag_71:\n        /* \"#utility.yul\":763:787   */\n      tag_99\n        /* \"#utility.yul\":781:786   */\n      dup2\n        /* \"#utility.yul\":763:787   */\n      tag_70\n      jump\t// in\n    tag_99:\n        /* \"#utility.yul\":758:761   */\n      dup3\n        /* \"#utility.yul\":751:788   */\n      mstore\n        /* \"#utility.yul\":676:794   */\n      pop\n      pop\n      jump\t// out\n        /* \"#utility.yul\":800:1022   */\n    tag_23:\n        /* \"#utility.yul\":893:897   */\n      0x00\n        /* \"#utility.yul\":931:933   */\n      0x20\n        /* \"#utility.yul\":920:929   */\n      dup3\n        /* \"#utility.yul\":916:934   */\n      add\n        /* \"#utility.yul\":908:934   */\n      swap1\n      pop\n        /* \"#utility.yul\":944:1015   */\n      tag_101\n        /* \"#utility.yul\":1012:1013   */\n      0x00\n        /* \"#utility.yul\":1001:1010   */\n      dup4\n        /* \"#utility.yul\":997:1014   */\n      add\n        /* \"#utility.yul\":988:994   */\n      dup5\n        /* \"#utility.yul\":944:1015   */\n      tag_71\n      jump\t// in\n    tag_101:\n        /* \"#utility.yul\":800:1022   */\n      swap3\n      swap2\n      pop\n      pop\n      jump\t// out\n        /* \"#utility.yul\":1109:1226   */\n    tag_73:\n        /* \"#utility.yul\":1218:1219   */\n      0x00\n        /* \"#utility.yul\":1215:1216   */\n      0x00\n        /* \"#utility.yul\":1208:1220   */\n      revert\n        /* \"#utility.yul\":1355:1477   */\n    tag_75:\n        /* \"#utility.yul\":1428:1452   */\n      tag_106\n        /* \"#utility.yul\":1446:1451   */\n      dup2\n        /* \"#utility.yul\":1428:1452   */\n      tag_67\n      jump\t// in\n    tag_106:\n        /* \"#utility.yul\":1421:1426   */\n      dup2\n        /* \"#utility.yul\":1418:1453   */\n      eq\n        /* \"#utility.yul\":1408:1471   */\n      tag_107\n      jumpi\n        /* \"#utility.yul\":1467:1468   */\n      0x00\n        /* \"#utility.yul\":1464:1465   */\n      0x00\n        /* \"#utility.yul\":1457:1469   */\n      revert\n        /* \"#utility.yul\":1408:1471   */\n    tag_107:\n        /* \"#utility.yul\":1355:1477   */\n      pop\n      jump\t// out\n        /* \"#utility.yul\":1483:1622   */\n    tag_76:\n        /* \"#utility.yul\":1529:1534   */\n      0x00\n        /* \"#utility.yul\":1567:1573   */\n      dup2\n        /* \"#utility.yul\":1554:1574   */\n      calldataload\n        /* \"#utility.yul\":1545:1574   */\n      swap1\n      pop\n        /* \"#utility.yul\":1583:1616   */\n      tag_109\n        /* \"#utility.yul\":1610:1615   */\n      dup2\n        /* \"#utility.yul\":1583:1616   */\n      tag_75\n      jump\t// in\n    tag_109:\n        /* \"#utility.yul\":1483:1622   */\n      swap3\n      swap2\n      pop\n      pop\n      jump\t// out\n        /* \"#utility.yul\":1628:1957   */\n    tag_26:\n        /* \"#utility.yul\":1687:1693   */\n      0x00\n        /* \"#utility.yul\":1736:1738   */\n      0x20\n        /* \"#utility.yul\":1724:1733   */\n      dup3\n        /* \"#utility.yul\":1715:1722   */\n      dup5\n        /* \"#utility.yul\":1711:1734   */\n      sub\n        /* \"#utility.yul\":1707:1739   */\n      slt\n        /* \"#utility.yul\":1704:1823   */\n      iszero\n      tag_111\n      jumpi\n        /* \"#utility.yul\":1742:1821   */\n      tag_112\n      tag_73\n      jump\t// in\n    tag_112:\n        /* \"#utility.yul\":1704:1823   */\n    tag_111:\n        /* \"#utility.yul\":1862:1863   */\n      0x00\n        /* \"#utility.yul\":1887:1940   */\n      tag_113\n        /* \"#utility.yul\":1932:1939   */\n      dup5\n        /* \"#utility.yul\":1923:1929   */\n      dup3\n        /* \"#utility.yul\":1912:1921   */\n      dup6\n        /* \"#utility.yul\":1908:1930   */\n      add\n        /* \"#utility.yul\":1887:1940   */\n      tag_76\n      jump\t// in\n    tag_113:\n        /* \"#utility.yul\":1877:1940   */\n      swap2\n      pop\n        /* \"#utility.yul\":1833:1950   */\n      pop\n        /* \"#utility.yul\":1628:1957   */\n      swap3\n      swap2\n      pop\n      pop\n      jump\t// out\n        /* \"#utility.yul\":1963:2085   */\n    tag_77:\n        /* \"#utility.yul\":2036:2060   */\n      tag_115\n        /* \"#utility.yul\":2054:2059   */\n      dup2\n        /* \"#utility.yul\":2036:2060   */\n      tag_70\n      jump\t// in\n    tag_115:\n        /* \"#utility.yul\":2029:2034   */\n      dup2\n        /* \"#utility.yul\":2026:2061   */\n      eq\n        /* \"#utility.yul\":2016:2079   */\n      tag_116\n      jumpi\n        /* \"#utility.yul\":2075:2076   */\n      0x00\n        /* \"#utility.yul\":2072:2073   */\n      0x00\n        /* \"#utility.yul\":2065:2077   */\n      revert\n        /* \"#utility.yul\":2016:2079   */\n    tag_116:\n        /* \"#utility.yul\":1963:2085   */\n      pop\n      jump\t// out\n        /* \"#utility.yul\":2091:2230   */\n    tag_78:\n        /* \"#utility.yul\":2137:2142   */\n      0x00\n        /* \"#utility.yul\":2175:2181   */\n      dup2\n        /* \"#utility.yul\":2162:2182   */\n      calldataload\n        /* \"#utility.yul\":2153:2182   */\n      swap1\n      pop\n        /* \"#utility.yul\":2191:2224   */\n      tag_118\n        /* \"#utility.yul\":2218:2223   */\n      dup2\n        /* \"#utility.yul\":2191:2224   */\n      tag_77\n      jump\t// in\n    tag_118:\n        /* \"#utility.yul\":2091:2230   */\n      swap3\n      swap2\n      pop\n      pop\n      jump\t// out\n        /* \"#utility.yul\":2236:2565   */\n    tag_31:\n        /* \"#utility.yul\":2295:2301   */\n      0x00\n        /* \"#utility.yul\":2344:2346   */\n      0x20\n        /* \"#utility.yul\":2332:2341   */\n      dup3\n        /* \"#utility.yul\":2323:2330   */\n      dup5\n        /* \"#utility.yul\":2319:2342   */\n      sub\n        /* \"#utility.yul\":2315:2347   */\n      slt\n        /* \"#utility.yul\":2312:2431   */\n      iszero\n      tag_120\n      jumpi\n        /* \"#utility.yul\":2350:2429   */\n      tag_121\n      tag_73\n      jump\t// in\n    tag_121:\n        /* \"#utility.yul\":2312:2431   */\n    tag_120:\n        /* \"#utility.yul\":2470:2471   */\n      0x00\n        /* \"#utility.yul\":2495:2548   */\n      tag_122\n        /* \"#utility.yul\":2540:2547   */\n      dup5\n        /* \"#utility.yul\":2531:2537   */\n      dup3\n        /* \"#utility.yul\":2520:2529   */\n      dup6\n        /* \"#utility.yul\":2516:2538   */\n      add\n        /* \"#utility.yul\":2495:2548   */\n      tag_78\n      jump\t// in\n    tag_122:\n        /* \"#utility.yul\":2485:2548   */\n      swap2\n      pop\n        /* \"#utility.yul\":2441:2558   */\n      pop\n        /* \"#utility.yul\":2236:2565   */\n      swap3\n      swap2\n      pop\n      pop\n      jump\t// out\n        /* \"#utility.yul\":2571:2740   */\n    tag_79:\n        /* \"#utility.yul\":2655:2666   */\n      0x00\n        /* \"#utility.yul\":2689:2695   */\n      dup3\n        /* \"#utility.yul\":2684:2687   */\n      dup3\n        /* \"#utility.yul\":2677:2696   */\n      mstore\n        /* \"#utility.yul\":2729:2733   */\n      0x20\n        /* \"#utility.yul\":2724:2727   */\n      dup3\n        /* \"#utility.yul\":2720:2734   */\n      add\n        /* \"#utility.yul\":2705:2734   */\n      swap1\n      pop\n        /* \"#utility.yul\":2571:2740   */\n      swap3\n      swap2\n      pop\n      pop\n      jump\t// out\n        /* \"#utility.yul\":2746:2922   */\n    tag_80:\n        /* \"#utility.yul\":2886:2914   */\n      0x6e6f74207468652062656e656669636961727941646472657373000000000000\n        /* \"#utility.yul\":2882:2883   */\n      0x00\n        /* \"#utility.yul\":2874:2880   */\n      dup3\n        /* \"#utility.yul\":2870:2884   */\n      add\n        /* \"#utility.yul\":2863:2915   */\n      mstore\n        /* \"#utility.yul\":2746:2922   */\n      pop\n      jump\t// out\n        /* \"#utility.yul\":2928:3294   */\n    tag_81:\n        /* \"#utility.yul\":3070:3073   */\n      0x00\n        /* \"#utility.yul\":3091:3158   */\n      tag_126\n        /* \"#utility.yul\":3155:3157   */\n      0x1a\n        /* \"#utility.yul\":3150:3153   */\n      dup4\n        /* \"#utility.yul\":3091:3158   */\n      tag_79\n      jump\t// in\n    tag_126:\n        /* \"#utility.yul\":3084:3158   */\n      swap2\n      pop\n        /* \"#utility.yul\":3167:3260   */\n      tag_127\n        /* \"#utility.yul\":3256:3259   */\n      dup3\n        /* \"#utility.yul\":3167:3260   */\n      tag_80\n      jump\t// in\n    tag_127:\n        /* \"#utility.yul\":3285:3287   */\n      0x20\n        /* \"#utility.yul\":3280:3283   */\n      dup3\n        /* \"#utility.yul\":3276:3288   */\n      add\n        /* \"#utility.yul\":3269:3288   */\n      swap1\n      pop\n        /* \"#utility.yul\":2928:3294   */\n      swap2\n      swap1\n      pop\n      jump\t// out\n        /* \"#utility.yul\":3300:3719   */\n    tag_40:\n        /* \"#utility.yul\":3466:3470   */\n      0x00\n        /* \"#utility.yul\":3504:3506   */\n      0x20\n        /* \"#utility.yul\":3493:3502   */\n      dup3\n        /* \"#utility.yul\":3489:3507   */\n      add\n        /* \"#utility.yul\":3481:3507   */\n      swap1\n      pop\n        /* \"#utility.yul\":3553:3562   */\n      dup2\n        /* \"#utility.yul\":3547:3551   */\n      dup2\n        /* \"#utility.yul\":3543:3563   */\n      sub\n        /* \"#utility.yul\":3539:3540   */\n      0x00\n        /* \"#utility.yul\":3528:3537   */\n      dup4\n        /* \"#utility.yul\":3524:3541   */\n      add\n        /* \"#utility.yul\":3517:3564   */\n      mstore\n        /* \"#utility.yul\":3581:3712   */\n      tag_129\n        /* \"#utility.yul\":3707:3711   */\n      dup2\n        /* \"#utility.yul\":3581:3712   */\n      tag_81\n      jump\t// in\n    tag_129:\n        /* \"#utility.yul\":3573:3712   */\n      swap1\n      pop\n        /* \"#utility.yul\":3300:3719   */\n      swap2\n      swap1\n      pop\n      jump\t// out\n        /* \"#utility.yul\":3725:3905   */\n    tag_82:\n        /* \"#utility.yul\":3773:3850   */\n      0x4e487b7100000000000000000000000000000000000000000000000000000000\n        /* \"#utility.yul\":3770:3771   */\n      0x00\n        /* \"#utility.yul\":3763:3851   */\n      mstore\n        /* \"#utility.yul\":3870:3874   */\n      0x11\n        /* \"#utility.yul\":3867:3868   */\n      0x04\n        /* \"#utility.yul\":3860:3875   */\n      mstore\n        /* \"#utility.yul\":3894:3898   */\n      0x24\n        /* \"#utility.yul\":3891:3892   */\n      0x00\n        /* \"#utility.yul\":3884:3899   */\n      revert\n        /* \"#utility.yul\":3911:4105   */\n    tag_43:\n        /* \"#utility.yul\":3951:3955   */\n      0x00\n        /* \"#utility.yul\":3971:3991   */\n      tag_132\n        /* \"#utility.yul\":3989:3990   */\n      dup3\n        /* \"#utility.yul\":3971:3991   */\n      tag_67\n      jump\t// in\n    tag_132:\n        /* \"#utility.yul\":3966:3991   */\n      swap2\n      pop\n        /* \"#utility.yul\":4005:4025   */\n      tag_133\n        /* \"#utility.yul\":4023:4024   */\n      dup4\n        /* \"#utility.yul\":4005:4025   */\n      tag_67\n      jump\t// in\n    tag_133:\n        /* \"#utility.yul\":4000:4025   */\n      swap3\n      pop\n        /* \"#utility.yul\":4049:4050   */\n      dup3\n        /* \"#utility.yul\":4046:4047   */\n      dup3\n        /* \"#utility.yul\":4042:4051   */\n      sub\n        /* \"#utility.yul\":4034:4051   */\n      swap1\n      pop\n        /* \"#utility.yul\":4073:4074   */\n      dup2\n        /* \"#utility.yul\":4067:4071   */\n      dup2\n        /* \"#utility.yul\":4064:4075   */\n      gt\n        /* \"#utility.yul\":4061:4098   */\n      iszero\n      tag_134\n      jumpi\n        /* \"#utility.yul\":4078:4096   */\n      tag_135\n      tag_82\n      jump\t// in\n    tag_135:\n        /* \"#utility.yul\":4061:4098   */\n    tag_134:\n        /* \"#utility.yul\":3911:4105   */\n      swap3\n      swap2\n      pop\n      pop\n      jump\t// out\n        /* \"#utility.yul\":4111:4285   */\n    tag_83:\n        /* \"#utility.yul\":4251:4277   */\n      0x67657420746865206d617820616d6f756e7420746f6b656e0000000000000000\n        /* \"#utility.yul\":4247:4248   */\n      0x00\n        /* \"#utility.yul\":4239:4245   */\n      dup3\n        /* \"#utility.yul\":4235:4249   */\n      add\n        /* \"#utility.yul\":4228:4278   */\n      mstore\n        /* \"#utility.yul\":4111:4285   */\n      pop\n      jump\t// out\n        /* \"#utility.yul\":4291:4657   */\n    tag_84:\n        /* \"#utility.yul\":4433:4436   */\n      0x00\n        /* \"#utility.yul\":4454:4521   */\n      tag_138\n        /* \"#utility.yul\":4518:4520   */\n      0x18\n        /* \"#utility.yul\":4513:4516   */\n      dup4\n        /* \"#utility.yul\":4454:4521   */\n      tag_79\n      jump\t// in\n    tag_138:\n        /* \"#utility.yul\":4447:4521   */\n      swap2\n      pop\n        /* \"#utility.yul\":4530:4623   */\n      tag_139\n        /* \"#utility.yul\":4619:4622   */\n      dup3\n        /* \"#utility.yul\":4530:4623   */\n      tag_83\n      jump\t// in\n    tag_139:\n        /* \"#utility.yul\":4648:4650   */\n      0x20\n        /* \"#utility.yul\":4643:4646   */\n      dup3\n        /* \"#utility.yul\":4639:4651   */\n      add\n        /* \"#utility.yul\":4632:4651   */\n      swap1\n      pop\n        /* \"#utility.yul\":4291:4657   */\n      swap2\n      swap1\n      pop\n      jump\t// out\n        /* \"#utility.yul\":4663:5082   */\n    tag_46:\n        /* \"#utility.yul\":4829:4833   */\n      0x00\n        /* \"#utility.yul\":4867:4869   */\n      0x20\n        /* \"#utility.yul\":4856:4865   */\n      dup3\n        /* \"#utility.yul\":4852:4870   */\n      add\n        /* \"#utility.yul\":4844:4870   */\n      swap1\n      pop\n        /* \"#utility.yul\":4916:4925   */\n      dup2\n        /* \"#utility.yul\":4910:4914   */\n      dup2\n        /* \"#utility.yul\":4906:4926   */\n      sub\n        /* \"#utility.yul\":4902:4903   */\n      0x00\n        /* \"#utility.yul\":4891:4900   */\n      dup4\n        /* \"#utility.yul\":4887:4904   */\n      add\n        /* \"#utility.yul\":4880:4927   */\n      mstore\n        /* \"#utility.yul\":4944:5075   */\n      tag_141\n        /* \"#utility.yul\":5070:5074   */\n      dup2\n        /* \"#utility.yul\":4944:5075   */\n      tag_84\n      jump\t// in\n    tag_141:\n        /* \"#utility.yul\":4936:5075   */\n      swap1\n      pop\n        /* \"#utility.yul\":4663:5082   */\n      swap2\n      swap1\n      pop\n      jump\t// out\n        /* \"#utility.yul\":5088:5279   */\n    tag_49:\n        /* \"#utility.yul\":5128:5131   */\n      0x00\n        /* \"#utility.yul\":5147:5167   */\n      tag_143\n        /* \"#utility.yul\":5165:5166   */\n      dup3\n        /* \"#utility.yul\":5147:5167   */\n      tag_67\n      jump\t// in\n    tag_143:\n        /* \"#utility.yul\":5142:5167   */\n      swap2\n      pop\n        /* \"#utility.yul\":5181:5201   */\n      tag_144\n        /* \"#utility.yul\":5199:5200   */\n      dup4\n        /* \"#utility.yul\":5181:5201   */\n      tag_67\n      jump\t// in\n    tag_144:\n        /* \"#utility.yul\":5176:5201   */\n      swap3\n      pop\n        /* \"#utility.yul\":5224:5225   */\n      dup3\n        /* \"#utility.yul\":5221:5222   */\n      dup3\n        /* \"#utility.yul\":5217:5226   */\n      add\n        /* \"#utility.yul\":5210:5226   */\n      swap1\n      pop\n        /* \"#utility.yul\":5245:5248   */\n      dup1\n        /* \"#utility.yul\":5242:5243   */\n      dup3\n        /* \"#utility.yul\":5239:5249   */\n      gt\n        /* \"#utility.yul\":5236:5272   */\n      iszero\n      tag_145\n      jumpi\n        /* \"#utility.yul\":5252:5270   */\n      tag_146\n      tag_82\n      jump\t// in\n    tag_146:\n        /* \"#utility.yul\":5236:5272   */\n    tag_145:\n        /* \"#utility.yul\":5088:5279   */\n      swap3\n      swap2\n      pop\n      pop\n      jump\t// out\n        /* \"#utility.yul\":5285:5617   */\n    tag_51:\n        /* \"#utility.yul\":5406:5410   */\n      0x00\n        /* \"#utility.yul\":5444:5446   */\n      0x40\n        /* \"#utility.yul\":5433:5442   */\n      dup3\n        /* \"#utility.yul\":5429:5447   */\n      add\n        /* \"#utility.yul\":5421:5447   */\n      swap1\n      pop\n        /* \"#utility.yul\":5457:5528   */\n      tag_148\n        /* \"#utility.yul\":5525:5526   */\n      0x00\n        /* \"#utility.yul\":5514:5523   */\n      dup4\n        /* \"#utility.yul\":5510:5527   */\n      add\n        /* \"#utility.yul\":5501:5507   */\n      dup6\n        /* \"#utility.yul\":5457:5528   */\n      tag_71\n      jump\t// in\n    tag_148:\n        /* \"#utility.yul\":5538:5610   */\n      tag_149\n        /* \"#utility.yul\":5606:5608   */\n      0x20\n        /* \"#utility.yul\":5595:5604   */\n      dup4\n        /* \"#utility.yul\":5591:5609   */\n      add\n        /* \"#utility.yul\":5582:5588   */\n      dup5\n        /* \"#utility.yul\":5538:5610   */\n      tag_68\n      jump\t// in\n    tag_149:\n        /* \"#utility.yul\":5285:5617   */\n      swap4\n      swap3\n      pop\n      pop\n      pop\n      jump\t// out\n        /* \"#utility.yul\":5623:5713   */\n    tag_85:\n        /* \"#utility.yul\":5657:5664   */\n      0x00\n        /* \"#utility.yul\":5700:5705   */\n      dup2\n        /* \"#utility.yul\":5693:5706   */\n      iszero\n        /* \"#utility.yul\":5686:5707   */\n      iszero\n        /* \"#utility.yul\":5675:5707   */\n      swap1\n      pop\n        /* \"#utility.yul\":5623:5713   */\n      swap2\n      swap1\n      pop\n      jump\t// out\n        /* \"#utility.yul\":5719:5835   */\n    tag_86:\n        /* \"#utility.yul\":5789:5810   */\n      tag_152\n        /* \"#utility.yul\":5804:5809   */\n      dup2\n        /* \"#utility.yul\":5789:5810   */\n      tag_85\n      jump\t// in\n    tag_152:\n        /* \"#utility.yul\":5782:5787   */\n      dup2\n        /* \"#utility.yul\":5779:5811   */\n      eq\n        /* \"#utility.yul\":5769:5829   */\n      tag_153\n      jumpi\n        /* \"#utility.yul\":5825:5826   */\n      0x00\n        /* \"#utility.yul\":5822:5823   */\n      0x00\n        /* \"#utility.yul\":5815:5827   */\n      revert\n        /* \"#utility.yul\":5769:5829   */\n    tag_153:\n        /* \"#utility.yul\":5719:5835   */\n      pop\n      jump\t// out\n        /* \"#utility.yul\":5841:5978   */\n    tag_87:\n        /* \"#utility.yul\":5895:5900   */\n      0x00\n        /* \"#utility.yul\":5926:5932   */\n      dup2\n        /* \"#utility.yul\":5920:5933   */\n      mload\n        /* \"#utility.yul\":5911:5933   */\n      swap1\n      pop\n        /* \"#utility.yul\":5942:5972   */\n      tag_155\n        /* \"#utility.yul\":5966:5971   */\n      dup2\n        /* \"#utility.yul\":5942:5972   */\n      tag_86\n      jump\t// in\n    tag_155:\n        /* \"#utility.yul\":5841:5978   */\n      swap3\n      swap2\n      pop\n      pop\n      jump\t// out\n        /* \"#utility.yul\":5984:6329   */\n    tag_55:\n        /* \"#utility.yul\":6051:6057   */\n      0x00\n        /* \"#utility.yul\":6100:6102   */\n      0x20\n        /* \"#utility.yul\":6088:6097   */\n      dup3\n        /* \"#utility.yul\":6079:6086   */\n      dup5\n        /* \"#utility.yul\":6075:6098   */\n      sub\n        /* \"#utility.yul\":6071:6103   */\n      slt\n        /* \"#utility.yul\":6068:6187   */\n      iszero\n      tag_157\n      jumpi\n        /* \"#utility.yul\":6106:6185   */\n      tag_158\n      tag_73\n      jump\t// in\n    tag_158:\n        /* \"#utility.yul\":6068:6187   */\n    tag_157:\n        /* \"#utility.yul\":6226:6227   */\n      0x00\n        /* \"#utility.yul\":6251:6312   */\n      tag_159\n        /* \"#utility.yul\":6304:6311   */\n      dup5\n        /* \"#utility.yul\":6295:6301   */\n      dup3\n        /* \"#utility.yul\":6284:6293   */\n      dup6\n        /* \"#utility.yul\":6280:6302   */\n      add\n        /* \"#utility.yul\":6251:6312   */\n      tag_87\n      jump\t// in\n    tag_159:\n        /* \"#utility.yul\":6241:6312   */\n      swap2\n      pop\n        /* \"#utility.yul\":6197:6322   */\n      pop\n        /* \"#utility.yul\":5984:6329   */\n      swap3\n      swap2\n      pop\n      pop\n      jump\t// out\n        /* \"#utility.yul\":6335:6745   */\n    tag_64:\n        /* \"#utility.yul\":6375:6382   */\n      0x00\n        /* \"#utility.yul\":6398:6418   */\n      tag_161\n        /* \"#utility.yul\":6416:6417   */\n      dup3\n        /* \"#utility.yul\":6398:6418   */\n      tag_67\n      jump\t// in\n    tag_161:\n        /* \"#utility.yul\":6393:6418   */\n      swap2\n      pop\n        /* \"#utility.yul\":6432:6452   */\n      tag_162\n        /* \"#utility.yul\":6450:6451   */\n      dup4\n        /* \"#utility.yul\":6432:6452   */\n      tag_67\n      jump\t// in\n    tag_162:\n        /* \"#utility.yul\":6427:6452   */\n      swap3\n      pop\n        /* \"#utility.yul\":6487:6488   */\n      dup3\n        /* \"#utility.yul\":6484:6485   */\n      dup3\n        /* \"#utility.yul\":6480:6489   */\n      mul\n        /* \"#utility.yul\":6509:6539   */\n      tag_163\n        /* \"#utility.yul\":6527:6538   */\n      dup2\n        /* \"#utility.yul\":6509:6539   */\n      tag_67\n      jump\t// in\n    tag_163:\n        /* \"#utility.yul\":6498:6539   */\n      swap2\n      pop\n        /* \"#utility.yul\":6688:6689   */\n      dup3\n        /* \"#utility.yul\":6679:6686   */\n      dup3\n        /* \"#utility.yul\":6675:6690   */\n      div\n        /* \"#utility.yul\":6672:6673   */\n      dup5\n        /* \"#utility.yul\":6669:6691   */\n      eq\n        /* \"#utility.yul\":6649:6650   */\n      dup4\n        /* \"#utility.yul\":6642:6651   */\n      iszero\n        /* \"#utility.yul\":6622:6705   */\n      or\n        /* \"#utility.yul\":6599:6738   */\n      tag_164\n      jumpi\n        /* \"#utility.yul\":6718:6736   */\n      tag_165\n      tag_82\n      jump\t// in\n    tag_165:\n        /* \"#utility.yul\":6599:6738   */\n    tag_164:\n        /* \"#utility.yul\":6383:6745   */\n      pop\n        /* \"#utility.yul\":6335:6745   */\n      swap3\n      swap2\n      pop\n      pop\n      jump\t// out\n        /* \"#utility.yul\":6751:6931   */\n    tag_88:\n        /* \"#utility.yul\":6799:6876   */\n      0x4e487b7100000000000000000000000000000000000000000000000000000000\n        /* \"#utility.yul\":6796:6797   */\n      0x00\n        /* \"#utility.yul\":6789:6877   */\n      mstore\n        /* \"#utility.yul\":6896:6900   */\n      0x12\n        /* \"#utility.yul\":6893:6894   */\n      0x04\n        /* \"#utility.yul\":6886:6901   */\n      mstore\n        /* \"#utility.yul\":6920:6924   */\n      0x24\n        /* \"#utility.yul\":6917:6918   */\n      0x00\n        /* \"#utility.yul\":6910:6925   */\n      revert\n        /* \"#utility.yul\":6937:7122   */\n    tag_66:\n        /* \"#utility.yul\":6977:6978   */\n      0x00\n        /* \"#utility.yul\":6994:7014   */\n      tag_168\n        /* \"#utility.yul\":7012:7013   */\n      dup3\n        /* \"#utility.yul\":6994:7014   */\n      tag_67\n      jump\t// in\n    tag_168:\n        /* \"#utility.yul\":6989:7014   */\n      swap2\n      pop\n        /* \"#utility.yul\":7028:7048   */\n      tag_169\n        /* \"#utility.yul\":7046:7047   */\n      dup4\n        /* \"#utility.yul\":7028:7048   */\n      tag_67\n      jump\t// in\n    tag_169:\n        /* \"#utility.yul\":7023:7048   */\n      swap3\n      pop\n        /* \"#utility.yul\":7067:7068   */\n      dup3\n        /* \"#utility.yul\":7057:7092   */\n      tag_170\n      jumpi\n        /* \"#utility.yul\":7072:7090   */\n      tag_171\n      tag_88\n      jump\t// in\n    tag_171:\n        /* \"#utility.yul\":7057:7092   */\n    tag_170:\n        /* \"#utility.yul\":7114:7115   */\n      dup3\n        /* \"#utility.yul\":7111:7112   */\n      dup3\n        /* \"#utility.yul\":7107:7116   */\n      div\n        /* \"#utility.yul\":7102:7116   */\n      swap1\n      pop\n        /* \"#utility.yul\":6937:7122   */\n      swap3\n      swap2\n      pop\n      pop\n      jump\t// out\n\n    auxdata: 0xa2646970667358221220747e66dad8ddf45226069140914766be0a788c8c360cbdfb5827fb032364640f64736f6c634300081c0033\n}\n",
				"bytecode": {
					"linkReferences": {},
					"object": "608060405234801561000f575f5ffd5b50604051610b9d380380610b9d833981810160405281019061003191906101ce565b5f73ffffffffffffffffffffffffffffffffffffffff168473ffffffffffffffffffffffffffffffffffffffff160361009f576040517f08c379a00000000000000000000000000000000000000000000000000000000081526004016100969061028c565b60405180910390fd5b8360015f6101000a81548173ffffffffffffffffffffffffffffffffffffffff021916908373ffffffffffffffffffffffffffffffffffffffff16021790555042600281905550826003819055508160045f6101000a81548173ffffffffffffffffffffffffffffffffffffffff021916908373ffffffffffffffffffffffffffffffffffffffff16021790555080600581905550505050506102aa565b5f5ffd5b5f73ffffffffffffffffffffffffffffffffffffffff82169050919050565b5f61016a82610141565b9050919050565b61017a81610160565b8114610184575f5ffd5b50565b5f8151905061019581610171565b92915050565b5f819050919050565b6101ad8161019b565b81146101b7575f5ffd5b50565b5f815190506101c8816101a4565b92915050565b5f5f5f5f608085870312156101e6576101e561013d565b5b5f6101f387828801610187565b9450506020610204878288016101ba565b935050604061021587828801610187565b9250506060610226878288016101ba565b91505092959194509250565b5f82825260208201905092915050565b7f5f62656e656669636961727941646472657373206973206e756c6c3b000000005f82015250565b5f610276601c83610232565b915061028182610242565b602082019050919050565b5f6020820190508181035f8301526102a38161026a565b9050919050565b6108e6806102b75f395ff3fe608060405234801561000f575f5ffd5b506004361061007b575f3560e01c80639d76ea58116100595780639d76ea58146100c5578063a24bcf46146100e3578063bbc702c614610113578063e6fd48bc146101435761007b565b80630fb5a6b41461007f57806386d1a69f1461009d5780638a926d0f146100a7575b5f5ffd5b610087610161565b60405161009491906104f9565b60405180910390f35b6100a5610167565b005b6100af610439565b6040516100bc91906104f9565b60405180910390f35b6100cd61043f565b6040516100da9190610551565b60405180910390f35b6100fd60048036038101906100f89190610598565b610464565b60405161010a91906104f9565b60405180910390f35b61012d600480360381019061012891906105ed565b6104c7565b60405161013a91906104f9565b60405180910390f35b61014b6104db565b60405161015891906104f9565b60405180910390f35b60035481565b60015f9054906101000a900473ffffffffffffffffffffffffffffffffffffffff1673ffffffffffffffffffffffffffffffffffffffff163373ffffffffffffffffffffffffffffffffffffffff16146101f6576040517f08c379a00000000000000000000000000000000000000000000000000000000081526004016101ed90610672565b60405180910390fd5b5f5f5f60045f9054906101000a900473ffffffffffffffffffffffffffffffffffffffff1673ffffffffffffffffffffffffffffffffffffffff1673ffffffffffffffffffffffffffffffffffffffff1681526020019081526020015f205461025e42610464565b61026891906106bd565b90505f81116102ac576040517f08c379a00000000000000000000000000000000000000000000000000000000081526004016102a39061073a565b60405180910390fd5b807f3d7159e755d949e0b07a019fbf8d2daff8082abe5935db36d722e59753a2ff4660015f9054906101000a900473ffffffffffffffffffffffffffffffffffffffff166040516102fd9190610551565b60405180910390a2805f5f60045f9054906101000a900473ffffffffffffffffffffffffffffffffffffffff1673ffffffffffffffffffffffffffffffffffffffff1673ffffffffffffffffffffffffffffffffffffffff1681526020019081526020015f205f8282546103719190610758565b9250508190555060045f9054906101000a900473ffffffffffffffffffffffffffffffffffffffff1673ffffffffffffffffffffffffffffffffffffffff1663a9059cbb60015f9054906101000a900473ffffffffffffffffffffffffffffffffffffffff16836040518363ffffffff1660e01b81526004016103f592919061078b565b6020604051808303815f875af1158015610411573d5f5f3e3d5ffd5b505050506040513d601f19601f8201168201806040525081019061043591906107e7565b5050565b60055481565b60045f9054906101000a900473ffffffffffffffffffffffffffffffffffffffff1681565b5f600254821015610477575f90506104c2565b6003546002546104879190610758565b82106104975760055490506104c2565b600354600254836104a891906106bd565b6005546104b59190610812565b6104bf9190610880565b90505b919050565b5f602052805f5260405f205f915090505481565b60025481565b5f819050919050565b6104f3816104e1565b82525050565b5f60208201905061050c5f8301846104ea565b92915050565b5f73ffffffffffffffffffffffffffffffffffffffff82169050919050565b5f61053b82610512565b9050919050565b61054b81610531565b82525050565b5f6020820190506105645f830184610542565b92915050565b5f5ffd5b610577816104e1565b8114610581575f5ffd5b50565b5f813590506105928161056e565b92915050565b5f602082840312156105ad576105ac61056a565b5b5f6105ba84828501610584565b91505092915050565b6105cc81610531565b81146105d6575f5ffd5b50565b5f813590506105e7816105c3565b92915050565b5f602082840312156106025761060161056a565b5b5f61060f848285016105d9565b91505092915050565b5f82825260208201905092915050565b7f6e6f74207468652062656e6566696369617279416464726573730000000000005f82015250565b5f61065c601a83610618565b915061066782610628565b602082019050919050565b5f6020820190508181035f83015261068981610650565b9050919050565b7f4e487b71000000000000000000000000000000000000000000000000000000005f52601160045260245ffd5b5f6106c7826104e1565b91506106d2836104e1565b92508282039050818111156106ea576106e9610690565b5b92915050565b7f67657420746865206d617820616d6f756e7420746f6b656e00000000000000005f82015250565b5f610724601883610618565b915061072f826106f0565b602082019050919050565b5f6020820190508181035f83015261075181610718565b9050919050565b5f610762826104e1565b915061076d836104e1565b925082820190508082111561078557610784610690565b5b92915050565b5f60408201905061079e5f830185610542565b6107ab60208301846104ea565b9392505050565b5f8115159050919050565b6107c6816107b2565b81146107d0575f5ffd5b50565b5f815190506107e1816107bd565b92915050565b5f602082840312156107fc576107fb61056a565b5b5f610809848285016107d3565b91505092915050565b5f61081c826104e1565b9150610827836104e1565b9250828202610835816104e1565b9150828204841483151761084c5761084b610690565b5b5092915050565b7f4e487b71000000000000000000000000000000000000000000000000000000005f52601260045260245ffd5b5f61088a826104e1565b9150610895836104e1565b9250826108a5576108a4610853565b5b82820490509291505056fea2646970667358221220747e66dad8ddf45226069140914766be0a788c8c360cbdfb5827fb032364640f64736f6c634300081c0033",
					"opcodes": "PUSH1 0x80 PUSH1 0x40 MSTORE CALLVALUE DUP1 ISZERO PUSH2 0xF JUMPI PUSH0 PUSH0 REVERT JUMPDEST POP PUSH1 0x40 MLOAD PUSH2 0xB9D CODESIZE SUB DUP1 PUSH2 0xB9D DUP4 CODECOPY DUP2 DUP2 ADD PUSH1 0x40 MSTORE DUP2 ADD SWAP1 PUSH2 0x31 SWAP2 SWAP1 PUSH2 0x1CE JUMP JUMPDEST PUSH0 PUSH20 0xFFFFFFFFFFFFFFFFFFFFFFFFFFFFFFFFFFFFFFFF AND DUP5 PUSH20 0xFFFFFFFFFFFFFFFFFFFFFFFFFFFFFFFFFFFFFFFF AND SUB PUSH2 0x9F JUMPI PUSH1 0x40 MLOAD PUSH32 0x8C379A000000000000000000000000000000000000000000000000000000000 DUP2 MSTORE PUSH1 0x4 ADD PUSH2 0x96 SWAP1 PUSH2 0x28C JUMP JUMPDEST PUSH1 0x40 MLOAD DUP1 SWAP2 SUB SWAP1 REVERT JUMPDEST DUP4 PUSH1 0x1 PUSH0 PUSH2 0x100 EXP DUP2 SLOAD DUP2 PUSH20 0xFFFFFFFFFFFFFFFFFFFFFFFFFFFFFFFFFFFFFFFF MUL NOT AND SWAP1 DUP4 PUSH20 0xFFFFFFFFFFFFFFFFFFFFFFFFFFFFFFFFFFFFFFFF AND MUL OR SWAP1 SSTORE POP TIMESTAMP PUSH1 0x2 DUP2 SWAP1 SSTORE POP DUP3 PUSH1 0x3 DUP2 SWAP1 SSTORE POP DUP2 PUSH1 0x4 PUSH0 PUSH2 0x100 EXP DUP2 SLOAD DUP2 PUSH20 0xFFFFFFFFFFFFFFFFFFFFFFFFFFFFFFFFFFFFFFFF MUL NOT AND SWAP1 DUP4 PUSH20 0xFFFFFFFFFFFFFFFFFFFFFFFFFFFFFFFFFFFFFFFF AND MUL OR SWAP1 SSTORE POP DUP1 PUSH1 0x5 DUP2 SWAP1 SSTORE POP POP POP POP POP PUSH2 0x2AA JUMP JUMPDEST PUSH0 PUSH0 REVERT JUMPDEST PUSH0 PUSH20 0xFFFFFFFFFFFFFFFFFFFFFFFFFFFFFFFFFFFFFFFF DUP3 AND SWAP1 POP SWAP2 SWAP1 POP JUMP JUMPDEST PUSH0 PUSH2 0x16A DUP3 PUSH2 0x141 JUMP JUMPDEST SWAP1 POP SWAP2 SWAP1 POP JUMP JUMPDEST PUSH2 0x17A DUP2 PUSH2 0x160 JUMP JUMPDEST DUP2 EQ PUSH2 0x184 JUMPI PUSH0 PUSH0 REVERT JUMPDEST POP JUMP JUMPDEST PUSH0 DUP2 MLOAD SWAP1 POP PUSH2 0x195 DUP2 PUSH2 0x171 JUMP JUMPDEST SWAP3 SWAP2 POP POP JUMP JUMPDEST PUSH0 DUP2 SWAP1 POP SWAP2 SWAP1 POP JUMP JUMPDEST PUSH2 0x1AD DUP2 PUSH2 0x19B JUMP JUMPDEST DUP2 EQ PUSH2 0x1B7 JUMPI PUSH0 PUSH0 REVERT JUMPDEST POP JUMP JUMPDEST PUSH0 DUP2 MLOAD SWAP1 POP PUSH2 0x1C8 DUP2 PUSH2 0x1A4 JUMP JUMPDEST SWAP3 SWAP2 POP POP JUMP JUMPDEST PUSH0 PUSH0 PUSH0 PUSH0 PUSH1 0x80 DUP6 DUP8 SUB SLT ISZERO PUSH2 0x1E6 JUMPI PUSH2 0x1E5 PUSH2 0x13D JUMP JUMPDEST JUMPDEST PUSH0 PUSH2 0x1F3 DUP8 DUP3 DUP9 ADD PUSH2 0x187 JUMP JUMPDEST SWAP5 POP POP PUSH1 0x20 PUSH2 0x204 DUP8 DUP3 DUP9 ADD PUSH2 0x1BA JUMP JUMPDEST SWAP4 POP POP PUSH1 0x40 PUSH2 0x215 DUP8 DUP3 DUP9 ADD PUSH2 0x187 JUMP JUMPDEST SWAP3 POP POP PUSH1 0x60 PUSH2 0x226 DUP8 DUP3 DUP9 ADD PUSH2 0x1BA JUMP JUMPDEST SWAP2 POP POP SWAP3 SWAP6 SWAP2 SWAP5 POP SWAP3 POP JUMP JUMPDEST PUSH0 DUP3 DUP3 MSTORE PUSH1 0x20 DUP3 ADD SWAP1 POP SWAP3 SWAP2 POP POP JUMP JUMPDEST PUSH32 0x5F62656E656669636961727941646472657373206973206E756C6C3B00000000 PUSH0 DUP3 ADD MSTORE POP JUMP JUMPDEST PUSH0 PUSH2 0x276 PUSH1 0x1C DUP4 PUSH2 0x232 JUMP JUMPDEST SWAP2 POP PUSH2 0x281 DUP3 PUSH2 0x242 JUMP JUMPDEST PUSH1 0x20 DUP3 ADD SWAP1 POP SWAP2 SWAP1 POP JUMP JUMPDEST PUSH0 PUSH1 0x20 DUP3 ADD SWAP1 POP DUP2 DUP2 SUB PUSH0 DUP4 ADD MSTORE PUSH2 0x2A3 DUP2 PUSH2 0x26A JUMP JUMPDEST SWAP1 POP SWAP2 SWAP1 POP JUMP JUMPDEST PUSH2 0x8E6 DUP1 PUSH2 0x2B7 PUSH0 CODECOPY PUSH0 RETURN INVALID PUSH1 0x80 PUSH1 0x40 MSTORE CALLVALUE DUP1 ISZERO PUSH2 0xF JUMPI PUSH0 PUSH0 REVERT JUMPDEST POP PUSH1 0x4 CALLDATASIZE LT PUSH2 0x7B JUMPI PUSH0 CALLDATALOAD PUSH1 0xE0 SHR DUP1 PUSH4 0x9D76EA58 GT PUSH2 0x59 JUMPI DUP1 PUSH4 0x9D76EA58 EQ PUSH2 0xC5 JUMPI DUP1 PUSH4 0xA24BCF46 EQ PUSH2 0xE3 JUMPI DUP1 PUSH4 0xBBC702C6 EQ PUSH2 0x113 JUMPI DUP1 PUSH4 0xE6FD48BC EQ PUSH2 0x143 JUMPI PUSH2 0x7B JUMP JUMPDEST DUP1 PUSH4 0xFB5A6B4 EQ PUSH2 0x7F JUMPI DUP1 PUSH4 0x86D1A69F EQ PUSH2 0x9D JUMPI DUP1 PUSH4 0x8A926D0F EQ PUSH2 0xA7 JUMPI JUMPDEST PUSH0 PUSH0 REVERT JUMPDEST PUSH2 0x87 PUSH2 0x161 JUMP JUMPDEST PUSH1 0x40 MLOAD PUSH2 0x94 SWAP2 SWAP1 PUSH2 0x4F9 JUMP JUMPDEST PUSH1 0x40 MLOAD DUP1 SWAP2 SUB SWAP1 RETURN JUMPDEST PUSH2 0xA5 PUSH2 0x167 JUMP JUMPDEST STOP JUMPDEST PUSH2 0xAF PUSH2 0x439 JUMP JUMPDEST PUSH1 0x40 MLOAD PUSH2 0xBC SWAP2 SWAP1 PUSH2 0x4F9 JUMP JUMPDEST PUSH1 0x40 MLOAD DUP1 SWAP2 SUB SWAP1 RETURN JUMPDEST PUSH2 0xCD PUSH2 0x43F JUMP JUMPDEST PUSH1 0x40 MLOAD PUSH2 0xDA SWAP2 SWAP1 PUSH2 0x551 JUMP JUMPDEST PUSH1 0x40 MLOAD DUP1 SWAP2 SUB SWAP1 RETURN JUMPDEST PUSH2 0xFD PUSH1 0x4 DUP1 CALLDATASIZE SUB DUP2 ADD SWAP1 PUSH2 0xF8 SWAP2 SWAP1 PUSH2 0x598 JUMP JUMPDEST PUSH2 0x464 JUMP JUMPDEST PUSH1 0x40 MLOAD PUSH2 0x10A SWAP2 SWAP1 PUSH2 0x4F9 JUMP JUMPDEST PUSH1 0x40 MLOAD DUP1 SWAP2 SUB SWAP1 RETURN JUMPDEST PUSH2 0x12D PUSH1 0x4 DUP1 CALLDATASIZE SUB DUP2 ADD SWAP1 PUSH2 0x128 SWAP2 SWAP1 PUSH2 0x5ED JUMP JUMPDEST PUSH2 0x4C7 JUMP JUMPDEST PUSH1 0x40 MLOAD PUSH2 0x13A SWAP2 SWAP1 PUSH2 0x4F9 JUMP JUMPDEST PUSH1 0x40 MLOAD DUP1 SWAP2 SUB SWAP1 RETURN JUMPDEST PUSH2 0x14B PUSH2 0x4DB JUMP JUMPDEST PUSH1 0x40 MLOAD PUSH2 0x158 SWAP2 SWAP1 PUSH2 0x4F9 JUMP JUMPDEST PUSH1 0x40 MLOAD DUP1 SWAP2 SUB SWAP1 RETURN JUMPDEST PUSH1 0x3 SLOAD DUP2 JUMP JUMPDEST PUSH1 0x1 PUSH0 SWAP1 SLOAD SWAP1 PUSH2 0x100 EXP SWAP1 DIV PUSH20 0xFFFFFFFFFFFFFFFFFFFFFFFFFFFFFFFFFFFFFFFF AND PUSH20 0xFFFFFFFFFFFFFFFFFFFFFFFFFFFFFFFFFFFFFFFF AND CALLER PUSH20 0xFFFFFFFFFFFFFFFFFFFFFFFFFFFFFFFFFFFFFFFF AND EQ PUSH2 0x1F6 JUMPI PUSH1 0x40 MLOAD PUSH32 0x8C379A000000000000000000000000000000000000000000000000000000000 DUP2 MSTORE PUSH1 0x4 ADD PUSH2 0x1ED SWAP1 PUSH2 0x672 JUMP JUMPDEST PUSH1 0x40 MLOAD DUP1 SWAP2 SUB SWAP1 REVERT JUMPDEST PUSH0 PUSH0 PUSH0 PUSH1 0x4 PUSH0 SWAP1 SLOAD SWAP1 PUSH2 0x100 EXP SWAP1 DIV PUSH20 0xFFFFFFFFFFFFFFFFFFFFFFFFFFFFFFFFFFFFFFFF AND PUSH20 0xFFFFFFFFFFFFFFFFFFFFFFFFFFFFFFFFFFFFFFFF AND PUSH20 0xFFFFFFFFFFFFFFFFFFFFFFFFFFFFFFFFFFFFFFFF AND DUP2 MSTORE PUSH1 0x20 ADD SWAP1 DUP2 MSTORE PUSH1 0x20 ADD PUSH0 KECCAK256 SLOAD PUSH2 0x25E TIMESTAMP PUSH2 0x464 JUMP JUMPDEST PUSH2 0x268 SWAP2 SWAP1 PUSH2 0x6BD JUMP JUMPDEST SWAP1 POP PUSH0 DUP2 GT PUSH2 0x2AC JUMPI PUSH1 0x40 MLOAD PUSH32 0x8C379A000000000000000000000000000000000000000000000000000000000 DUP2 MSTORE PUSH1 0x4 ADD PUSH2 0x2A3 SWAP1 PUSH2 0x73A JUMP JUMPDEST PUSH1 0x40 MLOAD DUP1 SWAP2 SUB SWAP1 REVERT JUMPDEST DUP1 PUSH32 0x3D7159E755D949E0B07A019FBF8D2DAFF8082ABE5935DB36D722E59753A2FF46 PUSH1 0x1 PUSH0 SWAP1 SLOAD SWAP1 PUSH2 0x100 EXP SWAP1 DIV PUSH20 0xFFFFFFFFFFFFFFFFFFFFFFFFFFFFFFFFFFFFFFFF AND PUSH1 0x40 MLOAD PUSH2 0x2FD SWAP2 SWAP1 PUSH2 0x551 JUMP JUMPDEST PUSH1 0x40 MLOAD DUP1 SWAP2 SUB SWAP1 LOG2 DUP1 PUSH0 PUSH0 PUSH1 0x4 PUSH0 SWAP1 SLOAD SWAP1 PUSH2 0x100 EXP SWAP1 DIV PUSH20 0xFFFFFFFFFFFFFFFFFFFFFFFFFFFFFFFFFFFFFFFF AND PUSH20 0xFFFFFFFFFFFFFFFFFFFFFFFFFFFFFFFFFFFFFFFF AND PUSH20 0xFFFFFFFFFFFFFFFFFFFFFFFFFFFFFFFFFFFFFFFF AND DUP2 MSTORE PUSH1 0x20 ADD SWAP1 DUP2 MSTORE PUSH1 0x20 ADD PUSH0 KECCAK256 PUSH0 DUP3 DUP3 SLOAD PUSH2 0x371 SWAP2 SWAP1 PUSH2 0x758 JUMP JUMPDEST SWAP3 POP POP DUP2 SWAP1 SSTORE POP PUSH1 0x4 PUSH0 SWAP1 SLOAD SWAP1 PUSH2 0x100 EXP SWAP1 DIV PUSH20 0xFFFFFFFFFFFFFFFFFFFFFFFFFFFFFFFFFFFFFFFF AND PUSH20 0xFFFFFFFFFFFFFFFFFFFFFFFFFFFFFFFFFFFFFFFF AND PUSH4 0xA9059CBB PUSH1 0x1 PUSH0 SWAP1 SLOAD SWAP1 PUSH2 0x100 EXP SWAP1 DIV PUSH20 0xFFFFFFFFFFFFFFFFFFFFFFFFFFFFFFFFFFFFFFFF AND DUP4 PUSH1 0x40 MLOAD DUP4 PUSH4 0xFFFFFFFF AND PUSH1 0xE0 SHL DUP2 MSTORE PUSH1 0x4 ADD PUSH2 0x3F5 SWAP3 SWAP2 SWAP1 PUSH2 0x78B JUMP JUMPDEST PUSH1 0x20 PUSH1 0x40 MLOAD DUP1 DUP4 SUB DUP2 PUSH0 DUP8 GAS CALL ISZERO DUP1 ISZERO PUSH2 0x411 JUMPI RETURNDATASIZE PUSH0 PUSH0 RETURNDATACOPY RETURNDATASIZE PUSH0 REVERT JUMPDEST POP POP POP POP PUSH1 0x40 MLOAD RETURNDATASIZE PUSH1 0x1F NOT PUSH1 0x1F DUP3 ADD AND DUP3 ADD DUP1 PUSH1 0x40 MSTORE POP DUP2 ADD SWAP1 PUSH2 0x435 SWAP2 SWAP1 PUSH2 0x7E7 JUMP JUMPDEST POP POP JUMP JUMPDEST PUSH1 0x5 SLOAD DUP2 JUMP JUMPDEST PUSH1 0x4 PUSH0 SWAP1 SLOAD SWAP1 PUSH2 0x100 EXP SWAP1 DIV PUSH20 0xFFFFFFFFFFFFFFFFFFFFFFFFFFFFFFFFFFFFFFFF AND DUP2 JUMP JUMPDEST PUSH0 PUSH1 0x2 SLOAD DUP3 LT ISZERO PUSH2 0x477 JUMPI PUSH0 SWAP1 POP PUSH2 0x4C2 JUMP JUMPDEST PUSH1 0x3 SLOAD PUSH1 0x2 SLOAD PUSH2 0x487 SWAP2 SWAP1 PUSH2 0x758 JUMP JUMPDEST DUP3 LT PUSH2 0x497 JUMPI PUSH1 0x5 SLOAD SWAP1 POP PUSH2 0x4C2 JUMP JUMPDEST PUSH1 0x3 SLOAD PUSH1 0x2 SLOAD DUP4 PUSH2 0x4A8 SWAP2 SWAP1 PUSH2 0x6BD JUMP JUMPDEST PUSH1 0x5 SLOAD PUSH2 0x4B5 SWAP2 SWAP1 PUSH2 0x812 JUMP JUMPDEST PUSH2 0x4BF SWAP2 SWAP1 PUSH2 0x880 JUMP JUMPDEST SWAP1 POP JUMPDEST SWAP2 SWAP1 POP JUMP JUMPDEST PUSH0 PUSH1 0x20 MSTORE DUP1 PUSH0 MSTORE PUSH1 0x40 PUSH0 KECCAK256 PUSH0 SWAP2 POP SWAP1 POP SLOAD DUP2 JUMP JUMPDEST PUSH1 0x2 SLOAD DUP2 JUMP JUMPDEST PUSH0 DUP2 SWAP1 POP SWAP2 SWAP1 POP JUMP JUMPDEST PUSH2 0x4F3 DUP2 PUSH2 0x4E1 JUMP JUMPDEST DUP3 MSTORE POP POP JUMP JUMPDEST PUSH0 PUSH1 0x20 DUP3 ADD SWAP1 POP PUSH2 0x50C PUSH0 DUP4 ADD DUP5 PUSH2 0x4EA JUMP JUMPDEST SWAP3 SWAP2 POP POP JUMP JUMPDEST PUSH0 PUSH20 0xFFFFFFFFFFFFFFFFFFFFFFFFFFFFFFFFFFFFFFFF DUP3 AND SWAP1 POP SWAP2 SWAP1 POP JUMP JUMPDEST PUSH0 PUSH2 0x53B DUP3 PUSH2 0x512 JUMP JUMPDEST SWAP1 POP SWAP2 SWAP1 POP JUMP JUMPDEST PUSH2 0x54B DUP2 PUSH2 0x531 JUMP JUMPDEST DUP3 MSTORE POP POP JUMP JUMPDEST PUSH0 PUSH1 0x20 DUP3 ADD SWAP1 POP PUSH2 0x564 PUSH0 DUP4 ADD DUP5 PUSH2 0x542 JUMP JUMPDEST SWAP3 SWAP2 POP POP JUMP JUMPDEST PUSH0 PUSH0 REVERT JUMPDEST PUSH2 0x577 DUP2 PUSH2 0x4E1 JUMP JUMPDEST DUP2 EQ PUSH2 0x581 JUMPI PUSH0 PUSH0 REVERT JUMPDEST POP JUMP JUMPDEST PUSH0 DUP2 CALLDATALOAD SWAP1 POP PUSH2 0x592 DUP2 PUSH2 0x56E JUMP JUMPDEST SWAP3 SWAP2 POP POP JUMP JUMPDEST PUSH0 PUSH1 0x20 DUP3 DUP5 SUB SLT ISZERO PUSH2 0x5AD JUMPI PUSH2 0x5AC PUSH2 0x56A JUMP JUMPDEST JUMPDEST PUSH0 PUSH2 0x5BA DUP5 DUP3 DUP6 ADD PUSH2 0x584 JUMP JUMPDEST SWAP2 POP POP SWAP3 SWAP2 POP POP JUMP JUMPDEST PUSH2 0x5CC DUP2 PUSH2 0x531 JUMP JUMPDEST DUP2 EQ PUSH2 0x5D6 JUMPI PUSH0 PUSH0 REVERT JUMPDEST POP JUMP JUMPDEST PUSH0 DUP2 CALLDATALOAD SWAP1 POP PUSH2 0x5E7 DUP2 PUSH2 0x5C3 JUMP JUMPDEST SWAP3 SWAP2 POP POP JUMP JUMPDEST PUSH0 PUSH1 0x20 DUP3 DUP5 SUB SLT ISZERO PUSH2 0x602 JUMPI PUSH2 0x601 PUSH2 0x56A JUMP JUMPDEST JUMPDEST PUSH0 PUSH2 0x60F DUP5 DUP3 DUP6 ADD PUSH2 0x5D9 JUMP JUMPDEST SWAP2 POP POP SWAP3 SWAP2 POP POP JUMP JUMPDEST PUSH0 DUP3 DUP3 MSTORE PUSH1 0x20 DUP3 ADD SWAP1 POP SWAP3 SWAP2 POP POP JUMP JUMPDEST PUSH32 0x6E6F74207468652062656E656669636961727941646472657373000000000000 PUSH0 DUP3 ADD MSTORE POP JUMP JUMPDEST PUSH0 PUSH2 0x65C PUSH1 0x1A DUP4 PUSH2 0x618 JUMP JUMPDEST SWAP2 POP PUSH2 0x667 DUP3 PUSH2 0x628 JUMP JUMPDEST PUSH1 0x20 DUP3 ADD SWAP1 POP SWAP2 SWAP1 POP JUMP JUMPDEST PUSH0 PUSH1 0x20 DUP3 ADD SWAP1 POP DUP2 DUP2 SUB PUSH0 DUP4 ADD MSTORE PUSH2 0x689 DUP2 PUSH2 0x650 JUMP JUMPDEST SWAP1 POP SWAP2 SWAP1 POP JUMP JUMPDEST PUSH32 0x4E487B7100000000000000000000000000000000000000000000000000000000 PUSH0 MSTORE PUSH1 0x11 PUSH1 0x4 MSTORE PUSH1 0x24 PUSH0 REVERT JUMPDEST PUSH0 PUSH2 0x6C7 DUP3 PUSH2 0x4E1 JUMP JUMPDEST SWAP2 POP PUSH2 0x6D2 DUP4 PUSH2 0x4E1 JUMP JUMPDEST SWAP3 POP DUP3 DUP3 SUB SWAP1 POP DUP2 DUP2 GT ISZERO PUSH2 0x6EA JUMPI PUSH2 0x6E9 PUSH2 0x690 JUMP JUMPDEST JUMPDEST SWAP3 SWAP2 POP POP JUMP JUMPDEST PUSH32 0x67657420746865206D617820616D6F756E7420746F6B656E0000000000000000 PUSH0 DUP3 ADD MSTORE POP JUMP JUMPDEST PUSH0 PUSH2 0x724 PUSH1 0x18 DUP4 PUSH2 0x618 JUMP JUMPDEST SWAP2 POP PUSH2 0x72F DUP3 PUSH2 0x6F0 JUMP JUMPDEST PUSH1 0x20 DUP3 ADD SWAP1 POP SWAP2 SWAP1 POP JUMP JUMPDEST PUSH0 PUSH1 0x20 DUP3 ADD SWAP1 POP DUP2 DUP2 SUB PUSH0 DUP4 ADD MSTORE PUSH2 0x751 DUP2 PUSH2 0x718 JUMP JUMPDEST SWAP1 POP SWAP2 SWAP1 POP JUMP JUMPDEST PUSH0 PUSH2 0x762 DUP3 PUSH2 0x4E1 JUMP JUMPDEST SWAP2 POP PUSH2 0x76D DUP4 PUSH2 0x4E1 JUMP JUMPDEST SWAP3 POP DUP3 DUP3 ADD SWAP1 POP DUP1 DUP3 GT ISZERO PUSH2 0x785 JUMPI PUSH2 0x784 PUSH2 0x690 JUMP JUMPDEST JUMPDEST SWAP3 SWAP2 POP POP JUMP JUMPDEST PUSH0 PUSH1 0x40 DUP3 ADD SWAP1 POP PUSH2 0x79E PUSH0 DUP4 ADD DUP6 PUSH2 0x542 JUMP JUMPDEST PUSH2 0x7AB PUSH1 0x20 DUP4 ADD DUP5 PUSH2 0x4EA JUMP JUMPDEST SWAP4 SWAP3 POP POP POP JUMP JUMPDEST PUSH0 DUP2 ISZERO ISZERO SWAP1 POP SWAP2 SWAP1 POP JUMP JUMPDEST PUSH2 0x7C6 DUP2 PUSH2 0x7B2 JUMP JUMPDEST DUP2 EQ PUSH2 0x7D0 JUMPI PUSH0 PUSH0 REVERT JUMPDEST POP JUMP JUMPDEST PUSH0 DUP2 MLOAD SWAP1 POP PUSH2 0x7E1 DUP2 PUSH2 0x7BD JUMP JUMPDEST SWAP3 SWAP2 POP POP JUMP JUMPDEST PUSH0 PUSH1 0x20 DUP3 DUP5 SUB SLT ISZERO PUSH2 0x7FC JUMPI PUSH2 0x7FB PUSH2 0x56A JUMP JUMPDEST JUMPDEST PUSH0 PUSH2 0x809 DUP5 DUP3 DUP6 ADD PUSH2 0x7D3 JUMP JUMPDEST SWAP2 POP POP SWAP3 SWAP2 POP POP JUMP JUMPDEST PUSH0 PUSH2 0x81C DUP3 PUSH2 0x4E1 JUMP JUMPDEST SWAP2 POP PUSH2 0x827 DUP4 PUSH2 0x4E1 JUMP JUMPDEST SWAP3 POP DUP3 DUP3 MUL PUSH2 0x835 DUP2 PUSH2 0x4E1 JUMP JUMPDEST SWAP2 POP DUP3 DUP3 DIV DUP5 EQ DUP4 ISZERO OR PUSH2 0x84C JUMPI PUSH2 0x84B PUSH2 0x690 JUMP JUMPDEST JUMPDEST POP SWAP3 SWAP2 POP POP JUMP JUMPDEST PUSH32 0x4E487B7100000000000000000000000000000000000000000000000000000000 PUSH0 MSTORE PUSH1 0x12 PUSH1 0x4 MSTORE PUSH1 0x24 PUSH0 REVERT JUMPDEST PUSH0 PUSH2 0x88A DUP3 PUSH2 0x4E1 JUMP JUMPDEST SWAP2 POP PUSH2 0x895 DUP4 PUSH2 0x4E1 JUMP JUMPDEST SWAP3 POP DUP3 PUSH2 0x8A5 JUMPI PUSH2 0x8A4 PUSH2 0x853 JUMP JUMPDEST JUMPDEST DUP3 DUP3 DIV SWAP1 POP SWAP3 SWAP2 POP POP JUMP INVALID LOG2 PUSH5 0x6970667358 0x22 SLT KECCAK256 PUSH21 0x7E66DAD8DDF45226069140914766BE0A788C8C360C 0xBD 0xFB PC 0x27 0xFB SUB 0x23 PUSH5 0x640F64736F PUSH13 0x634300081C0033000000000000 "
				},
				"gasEstimates": {
					"creation": {
						"codeDepositCost": "455600",
						"executionCost": "infinite",
						"totalCost": "infinite"
					},
					"external": {
						"calculateTokenAmount(uint256)": "infinite",
						"duration()": "2426",
						"erc20Released(address)": "2845",
						"maxTokenAmount()": "2470",
						"release()": "infinite",
						"startTimestamp()": "2491",
						"tokenAddress()": "2508"
					}
				},
				"methodIdentifiers": {
					"calculateTokenAmount(uint256)": "a24bcf46",
					"duration()": "0fb5a6b4",
					"erc20Released(address)": "bbc702c6",
					"maxTokenAmount()": "8a926d0f",
					"release()": "86d1a69f",
					"startTimestamp()": "e6fd48bc",
					"tokenAddress()": "9d76ea58"
				}
			},
			"storageLayout": {
				"storage": [
					{
						"astId": 84,
						"contract": "contracts/ReleaseToken/ReleaseTokenByTime.sol:ReleaseToken",
						"label": "erc20Released",
						"offset": 0,
						"slot": "0",
						"type": "t_mapping(t_address,t_uint256)"
					},
					{
						"astId": 86,
						"contract": "contracts/ReleaseToken/ReleaseTokenByTime.sol:ReleaseToken",
						"label": "beneficiaryAddress",
						"offset": 0,
						"slot": "1",
						"type": "t_address"
					},
					{
						"astId": 88,
						"contract": "contracts/ReleaseToken/ReleaseTokenByTime.sol:ReleaseToken",
						"label": "startTimestamp",
						"offset": 0,
						"slot": "2",
						"type": "t_uint256"
					},
					{
						"astId": 90,
						"contract": "contracts/ReleaseToken/ReleaseTokenByTime.sol:ReleaseToken",
						"label": "duration",
						"offset": 0,
						"slot": "3",
						"type": "t_uint256"
					},
					{
						"astId": 92,
						"contract": "contracts/ReleaseToken/ReleaseTokenByTime.sol:ReleaseToken",
						"label": "tokenAddress",
						"offset": 0,
						"slot": "4",
						"type": "t_address"
					},
					{
						"astId": 94,
						"contract": "contracts/ReleaseToken/ReleaseTokenByTime.sol:ReleaseToken",
						"label": "maxTokenAmount",
						"offset": 0,
						"slot": "5",
						"type": "t_uint256"
					}
				],
				"types": {
					"t_address": {
						"encoding": "inplace",
						"label": "address",
						"numberOfBytes": "20"
					},
					"t_mapping(t_address,t_uint256)": {
						"encoding": "mapping",
						"key": "t_address",
						"label": "mapping(address => uint256)",
						"numberOfBytes": "32",
						"value": "t_uint256"
					},
					"t_uint256": {
						"encoding": "inplace",
						"label": "uint256",
						"numberOfBytes": "32"
					}
				}
			},
			"userdoc": {
				"kind": "user",
				"methods": {},
				"version": 1
			}
		}
	}
}